:100000000C94D7000C94FF000C94FF000C94FF009C
:100010000C94FF000C94FF000C94FF000C94FF0064
:100020000C94FF000C94FF000C94FF000C94FF0054
:100030000C94FF000C94FF000C94FF000C94FF0044
:100040000C941F1B0C94FF000C94ED1A0C94C71A0F
:100050000C94FF000C94FF000C94FF000C94FF0024
:100060000C94691B0C94FF005B4248313735305DBE
:1000700020446576696365206973206E6F74206320
:100080006F6E6669677572656421005B424831373F
:1000900035305D204552524F523A20756E64656688
:1000A000696E6564206572726F72005B4248313719
:1000B00035305D204552524F523A206F7468657258
:1000C000206572726F72005B4248313735305D20B7
:1000D0004552524F523A20726563656976656420D5
:1000E0004E41434B206F6E207472616E736D697464
:1000F000206F662064617461005B4248313735309F
:100100005D204552524F523A2072656365697665AB
:1001100064204E41434B206F6E207472616E736D8C
:100120006974206F662061646472657373005B425A
:1001300048313735305D204552524F523A20746F66
:100140006F206C6F6E6720666F72207472616E73C1
:100150006D69742062756666657200000000002398
:10016000002600290000000000250028002B0004C4
:10017000040404040404040202020202020303034E
:100180000303030102040810204080010204081048
:1001900020010204081020000000080002010000F5
:1001A000030407000000000000000000881C112468
:1001B0001FBECFEFD8E0DEBFCDBF11E0A0E0B1E0C1
:1001C000E6E2F4E402C005900D92A63FB107D9F72C
:1001D00027E0A6EFB1E001C01D92AB3CB207E1F70A
:1001E00010E0C7EDD0E004C02197FE010E94EB2192
:1001F000C63DD107C9F70E94D81C0C9411220C945B
:100200000000982F2091100781E0213208F043C0B0
:100210008091EC068111FCCF80910F0732E0309382
:10022000EC069093EB069FEF9093EA061092E90696
:100230002093E806AFEEB6E0E8ECF6E090E0291394
:1002400031C01092C7069091C706880F892B809302
:10025000C7068091C606813049F51092C606809186
:10026000C7068093BB008091BC0083FDF8CF85EC6E
:100270008093BC008091EC068230E1F38091EA0625
:100280008F3FB1F08091EA068032A1F08091EA06BA
:10029000803391F084E01092EE06109210071092D5
:1002A000ED0608953D9131939F5FC9CF85EEE0CF74
:1002B00080E0F1CF82E0EFCF83E0EDCF0F931F938B
:1002C000CF93DF93EC018B01E881F9810480F58104
:1002D000E02D09951B830A8384E290E09E878D8739
:1002E000E881F9810284F385E02DCE01099500971C
:1002F00001F19C0150E040E060E472E48FE090E0A6
:100300000E9435208091B1079091B207A091B30768
:10031000B091B40782179307A407B50710F4DA0168
:10032000C9018093B1079093B207A093B307B0932C
:10033000B407CE01DF91CF911F910F9108950895D9
:100340000895AF92BF92CF92DF92EF92FF920F93F8
:100350001F93CF93DF936C017B018B01040F151F5B
:10036000EB015E01AE18BF08C017D10759F06991C3
:10037000D601ED91FC910190F081E02DC601099527
:10038000892B79F7C501DF91CF911F910F91FF90D4
:10039000EF90DF90CF90BF90AF900895FC01538D08
:1003A000448D252F30E0842F90E0821B930B54174F
:1003B00010F0CF96089501970895FC01918D828DDC
:1003C000981761F0A28DAE0FBF2FB11D5D968C9175
:1003D000928D9F5F9F73928F90E008958FEF9FEFB4
:1003E0000895FC01918D828D981731F0828DE80F70
:1003F000F11D858D90E008958FEF9FEF0895FC012A
:10040000918D228D892F90E0805C9F4F821B9109F6
:100410008F739927089581E197E00E94FF0121E001
:10042000892B09F420E0822F089580E090E0892B49
:1004300029F00E940B0281110C9400000895FC0128
:10044000A48DA80FB92FB11DA35ABF4F2C91848D35
:1004500090E001968F739927848FA689B7892C9392
:10046000A089B1898C91837080648C93938D848DE5
:10047000981306C00288F389E02D80818F7D8083E8
:100480000895EF92FF920F931F93CF93DF93EC01A8
:1004900081E0888F9B8D8C8D98131AC0E889F9892B
:1004A000808185FF15C09FB7F894EE89FF8960832E
:1004B000E889F98980818370806480839FBF81E0AF
:1004C00090E0DF91CF911F910F91FF90EF900895F1
:1004D000F62E0B8D10E00F5F1F4F0F731127E02ECC
:1004E0008C8D8E110CC00FB607FCFACFE889F98904
:1004F000808185FFF5CFCE010E941F02F1CFEB8DE9
:10050000EC0FFD2FF11DE35AFF4FF0829FB7F894D7
:100510000B8FEA89FB8980818062CFCFCF93DF93F5
:10052000EC01888D8823B9F0AA89BB89E889F9890B
:100530008C9185FD03C0808186FD0DC00FB607FC40
:10054000F7CF8C9185FFF2CF808185FFEDCFCE0173
:100550000E941F02E9CFDF91CF910895833081F08F
:1005600028F4813099F08230A9F008958730A9F0FD
:100570008830C9F08430B1F4809180008F7D03C051
:10058000809180008F7780938000089584B58F7765
:1005900084BD089584B58F7DFBCF8091B0008F77A7
:1005A0008093B00008958091B0008F7DF9CFCF93F4
:1005B000DF93282F30E0F901E956FE4F8491F901CD
:1005C000ED57FE4FD491F901E159FE4FC491CC2370
:1005D00089F081110E94AE02EC2FF0E0EE0FFF1FB8
:1005E000EB59FE4FA591B4918FB7F894EC91DE2BA7
:1005F000DC938FBFDF91CF9108953FB7F89480913E
:100600007E0290917F02A0918002B091810226B576
:10061000A89B05C02F3F19F00196A11DB11D3FBF3A
:10062000BA2FA92F982F8827BC01CD01620F711D09
:10063000811D911D42E0660F771F881F991F4A9503
:10064000D1F708958F929F92AF92BF92CF92DF928F
:10065000EF92FF924B015C010E94FD026B017C0155
:100660000E94FD026C197D098E099F09683E734046
:1006700081059105A8F321E0821A9108A108B1082B
:1006800088EEC80E83E0D81EE11CF11C8114910491
:10069000A104B10429F7FF90EF90DF90CF90BF90B5
:1006A000AF909F908F90089585ED8093BC008091CE
:1006B000BC0084FDFCCF1092EC06089520915602F8
:1006C000260F3327331F21323105ECF42091EC063D
:1006D000FC0190E080E0243069F082E00895A09170
:1006E00056022191AC014A5C5D4FA40FB52FB11D9C
:1006F0002C930196861798F380915602680F6093A9
:10070000560280E0089581E008950895E0918702FF
:1007100080918602E81730F4F0E0EA5EFD4F8081B8
:1007200090E008958FEF9FEF089590918702809158
:1007300086022FEF3FEF981748F4E92FF0E0EA5ECA
:10074000FD4F208130E09F5F90938702C90108959B
:100750008091860290918702891B990B0895CF9210
:10076000DF92EF92FF920F931F93CF93DF937C0161
:10077000CB018A012091ED06222389F0EB016B0168
:10078000C40ED51ECC15DD0569F06991D701ED9138
:10079000FC910190F081E02DC7010995F3CF642F02
:1007A0000E945E03C801DF91CF911F910F91FF90CE
:1007B000EF90DF90CF900895CF93DF931F92CDB746
:1007C000DEB769832091ED062223F9F0209110070E
:1007D000203258F021E030E0FC013383228390E0A6
:1007E00080E00F90DF91CF9108958091EE06E82F81
:1007F000F0E0E151F94F998190838F5F8093EE068D
:100800008093100781E090E0ECCF61E0CE0101968B
:100810000E945E03F7CF90E080E008950F931F934E
:10082000CF93DF93209115022F5F322F37703093D3
:10083000150220FF2BC020E831FD2064347009F040
:100840002062205FFC01EC01239600E011E064854A
:10085000662329F070E0C8010E94D7216F5F61878D
:10086000322F369F030E30E0311D1124311110C09C
:100870001682662311F0615061873196EC17FD07EF
:1008800031F7DF91CF911F910F91089520E0D4CFE0
:1008900031503683EECFCF93DF93EC010E94FD02FF
:1008A00079836883DF91CF910895CF93DF93EC0133
:1008B0000E94FD0228813981621B730B6A30710529
:1008C000B8F3DF91CF9108954F925F926F927F922C
:1008D0008F929F92AF92CF92DF92EF92FF920F93FF
:1008E0001F93CF93DF93EB010F962C010E945504C9
:1008F000F894E881F9810BB108601BB1177F1BB92F
:10090000CB8488854C2D481B842F48879F846A8020
:100910007B80FE84EC84DD84F394E394D3949E8105
:100920003F818984AA844281D30120E0622F722F03
:100930007281442788947111780F08F47FEF8195B4
:100940008894F0FC470F47958894F1FC470F479532
:100950008894F2FC470F47958894F3FC470F47951E
:100960008894F4FC470F47958894F5FC470F47950A
:100970008894F6FC470F47958894F7FC470F4795F6
:100980008894272FF110242F8C0D422F002C0BB9A7
:1009900000C000C047FF1BB970812227889400C0A7
:1009A000002C1BB97111790F00C0002C0BB900C0CD
:1009B00000C046FF1BB908F47FEF9195889400C0F2
:1009C000002C1BB9E0FC270F00C0002C0BB900C0A5
:1009D00000C045FF1BB927958894E1FC270F00C094
:1009E000002C1BB92795889400C0002C0BB900C0BF
:1009F00000C044FF1BB9E2FC270F2795889400C074
:100A0000002C1BB9E3FC270F00C0002C0BB900C061
:100A100000C043FF1BB927958894E4FC270F00C052
:100A2000002C1BB92795889400C0002C0BB900C07E
:100A300000C042FF1BB9E5FC270F2795889400C032
:100A4000002C1BB9E6FC270F00C0002C0BB900C01E
:100A500000C041FF1BB927958894E7FC270F00C011
:100A6000002C1BB92795889400C0002C0BB900C03E
:100A700000C040FF1BB9472FE110422F980D00C066
:100A8000002C1BB900C000C0002C0BB900C000C076
:100A900047FF1BB971812227889400C0002C1BB925
:100AA0007111730F00C0002C0BB900C000C046FFCD
:100AB0001BB908F47FEFE90DF11D00C0002C1BB934
:100AC000D0FC270F00C0002C0BB900C000C045FFB0
:100AD0001BB927958894D1FC270F00C0002C1BB9A7
:100AE0002795889400C0002C0BB900C000C044FFBB
:100AF0001BB9D2FC270F2795889400C0002C1BB986
:100B0000D3FC270F00C0002C0BB900C000C043FF6E
:100B10001BB927958894D4FC270F00C0002C1BB963
:100B20002795889400C0002C0BB900C000C042FF7C
:100B30001BB9D5FC270F2795889400C0002C1BB942
:100B4000D6FC270F00C0002C0BB900C000C041FF2D
:100B50001BB927958894D7FC270F00C0002C1BB920
:100B60002795889400C0002C0BB900C000C040FF3E
:100B70001BB9472FD110422F319500C0002C1BB953
:100B80003A0D00C000C00BB900C000C047FF1BB940
:100B900072812227889400C0002C1BB97111780F34
:100BA00000C0002C0BB900C000C046FF1BB908F400
:100BB0007FEF8195889400C0002C1BB9F0FC270FB3
:100BC00000C0002C0BB900C000C045FF1BB9279521
:100BD0008894F1FC270F00C0002C1BB9279588943E
:100BE00000C0002C0BB900C000C044FF1BB9F2FCD0
:100BF000270F2795889400C0002C1BB9F3FC270F02
:100C000000C0002C0BB900C000C043FF1BB92795E2
:100C10008894F4FC270F00C0002C1BB927958894FA
:100C200000C0002C0BB900C000C042FF1BB9F5FC8E
:100C3000270F2795889400C0002C1BB9F6FC270FBE
:100C400000C0002C0BB900C000C041FF1BB92795A4
:100C50008894F7FC270F00C0002C1BB927958894B7
:100C600000C0002C0BB900C000C040FF1BB9472FCB
:100C7000F110422F8C0D00C0002C1BB9119709F008
:100C800086CE20EE31E0D3010E94F121DC01CB01C0
:100C9000F4E0B695A79597958795FA95D1F730E04A
:100CA00020E0B901EAE96E9E060C611D7E9E600D92
:100CB000711D1124670D711D860F971FA11DB11D98
:100CC000893E43E09407A105B10508F434C0885E6D
:100CD0009340A109B10942E0B695A79597958795EC
:100CE0004A95D1F747E0849F080E211D949F200D5F
:100CF000311D1124290F311D6091140270E0860FFF
:100D0000971F820F931F40917A0250917B0260914E
:100D10007C0270917D02292F3327420F531F611DE2
:100D2000711D40937A0250937B0260937C02709312
:100D30007D02809314027894C201DF91CF911F91BC
:100D40000F91FF90EF90DF90CF90AF909F908F909A
:100D50007F906F905F904F900C944B0480E991E0EE
:100D60000895539A08954F925F926F927F928F9257
:100D70009F92AF92CF92DF92EF92FF920F931F93C9
:100D8000CF93DF93EB010F962C010E945504F8944A
:100D9000E881F9810BB100611BB11F7E1BB9CB84C7
:100DA00088854C2D481B842F48879F846A807B80D0
:100DB000FE84EC84DD84F394E394D3949E813F819C
:100DC0008984AA844281D30120E0622F722F72812C
:100DD000442788947111780F08F47FEF81958894E7
:100DE000F0FC470F47958894F1FC470F479588948E
:100DF000F2FC470F47958894F3FC470F479588947A
:100E0000F4FC470F47958894F5FC470F4795889465
:100E1000F6FC470F47958894F7FC470F4795889451
:100E2000272FF110242F8C0D422F002C0BB900C05E
:100E300000C047FF1BB970812227889400C0002C96
:100E40001BB97111790F00C0002C0BB900C000C094
:100E500046FF1BB908F47FEF9195889400C0002CE1
:100E60001BB9E0FC270F00C0002C0BB900C000C06C
:100E700045FF1BB927958894E1FC270F00C0002C83
:100E80001BB92795889400C0002C0BB900C000C086
:100E900044FF1BB9E2FC270F2795889400C0002C63
:100EA0001BB9E3FC270F00C0002C0BB900C000C029
:100EB00043FF1BB927958894E4FC270F00C0002C42
:100EC0001BB92795889400C0002C0BB900C000C046
:100ED00042FF1BB9E5FC270F2795889400C0002C22
:100EE0001BB9E6FC270F00C0002C0BB900C000C0E6
:100EF00041FF1BB927958894E7FC270F00C0002C01
:100F00001BB92795889400C0002C0BB900C000C005
:100F100040FF1BB9472FE110422F980D00C0002C55
:100F20001BB900C000C0002C0BB900C000C047FFB7
:100F30001BB971812227889400C0002C1BB9711144
:100F4000730F00C0002C0BB900C000C046FF1BB9D6
:100F500008F47FEFE90DF11D00C0002C1BB9D0FC97
:100F6000270F00C0002C0BB900C000C045FF1BB903
:100F700027958894D1FC270F00C0002C1BB927951A
:100F8000889400C0002C0BB900C000C044FF1BB9FE
:100F9000D2FC270F2795889400C0002C1BB9D3FCE6
:100FA000270F00C0002C0BB900C000C043FF1BB9C5
:100FB00027958894D4FC270F00C0002C1BB92795D7
:100FC000889400C0002C0BB900C000C042FF1BB9C0
:100FD000D5FC270F2795889400C0002C1BB9D6FCA0
:100FE000270F00C0002C0BB900C000C041FF1BB987
:100FF00027958894D7FC270F00C0002C1BB9279594
:10100000889400C0002C0BB900C000C040FF1BB981
:10101000472FD110422F319500C0002C1BB93A0D3B
:1010200000C000C00BB900C000C047FF1BB97281EF
:101030002227889400C0002C1BB97111780F00C0C2
:10104000002C0BB900C000C046FF1BB908F47FEFAD
:101050008195889400C0002C1BB9F0FC270F00C0BC
:10106000002C0BB900C000C045FF1BB92795889420
:10107000F1FC270F00C0002C1BB92795889400C0F5
:10108000002C0BB900C000C044FF1BB9F2FC270FB5
:101090002795889400C0002C1BB9F3FC270F00C0D3
:1010A000002C0BB900C000C043FF1BB927958894E2
:1010B000F4FC270F00C0002C1BB92795889400C0B2
:1010C000002C0BB900C000C042FF1BB9F5FC270F74
:1010D0002795889400C0002C1BB9F6FC270F00C090
:1010E000002C0BB900C000C041FF1BB927958894A4
:1010F000F7FC270F00C0002C1BB92795889400C06F
:10110000002C0BB900C000C040FF1BB9472FF110E5
:10111000422F8C0D00C0002C1BB9119709F086CE10
:1011200020EE31E0D3010E94F121DC01CB01F4E09B
:10113000B695A79597958795FA95D1F730E020E079
:10114000B901EAE96E9E060C611D7E9E600D711D5F
:101150001124670D711D860F971FA11DB11D893EBA
:1011600043E09407A105B10508F434C0885E9340BC
:10117000A109B10942E0B695A795979587954A953B
:10118000D1F747E0849F080E211D949F200D311D4B
:101190001124290F311D6091140270E0860F971FF2
:1011A000820F931F40917A0250917B0260917C02E2
:1011B00070917D02292F3327420F531F611D711D2E
:1011C00040937A0250937B0260937C0270937D027D
:1011D000809314027894C201DF91CF911F910F91F7
:1011E000FF90EF90DF90CF90AF909F908F907F9087
:1011F0006F905F904F900C944B04549A08954F92C7
:101200005F926F927F928F929F92AF92CF92DF9276
:10121000EF92FF920F931F93CF93DF93EB010F9603
:101220002C010E945504F894E881F9810BB1006209
:101230001BB11F7D1BB9CB8488854C2D481B842F87
:1012400048879F846A807B80FE84EC84DD84F394ED
:10125000E394D3949E813F818984AA844281D301FF
:1012600020E0622F722F7281442788947111780FC9
:1012700008F47FEF81958894F0FC470F4795889498
:10128000F1FC470F47958894F2FC470F47958894E7
:10129000F3FC470F47958894F4FC470F47958894D3
:1012A000F5FC470F47958894F6FC470F47958894BF
:1012B000F7FC470F47958894272FF110242F8C0DAA
:1012C000422F002C0BB900C000C047FF1BB9708132
:1012D0002227889400C0002C1BB97111790F00C01F
:1012E000002C0BB900C000C046FF1BB908F47FEF0B
:1012F0009195889400C0002C1BB9E0FC270F00C01A
:10130000002C0BB900C000C045FF1BB9279588947D
:10131000E1FC270F00C0002C1BB92795889400C062
:10132000002C0BB900C000C044FF1BB9E2FC270F22
:101330002795889400C0002C1BB9E3FC270F00C040
:10134000002C0BB900C000C043FF1BB9279588943F
:10135000E4FC270F00C0002C1BB92795889400C01F
:10136000002C0BB900C000C042FF1BB9E5FC270FE1
:101370002795889400C0002C1BB9E6FC270F00C0FD
:10138000002C0BB900C000C041FF1BB92795889401
:10139000E7FC270F00C0002C1BB92795889400C0DC
:1013A000002C0BB900C000C040FF1BB9472FE11053
:1013B000422F980D00C0002C1BB900C000C0002CAB
:1013C0000BB900C000C047FF1BB971812227889468
:1013D00000C0002C1BB97111730F00C0002C0BB999
:1013E00000C000C046FF1BB908F47FEFE90DF11DF6
:1013F00000C0002C1BB9D0FC270F00C0002C0BB97B
:1014000000C000C045FF1BB927958894D1FC270F69
:1014100000C0002C1BB92795889400C0002C0BB984
:1014200000C000C044FF1BB9D2FC270F2795889449
:1014300000C0002C1BB9D3FC270F00C0002C0BB937
:1014400000C000C043FF1BB927958894D4FC270F28
:1014500000C0002C1BB92795889400C0002C0BB944
:1014600000C000C042FF1BB9D5FC270F2795889408
:1014700000C0002C1BB9D6FC270F00C0002C0BB9F4
:1014800000C000C041FF1BB927958894D7FC270FE7
:1014900000C0002C1BB92795889400C0002C0BB904
:1014A00000C000C040FF1BB9472FD110422F31951B
:1014B00000C0002C1BB93A0D00C000C00BB900C021
:1014C00000C047FF1BB972812227889400C0002CFE
:1014D0001BB97111780F00C0002C0BB900C000C0FF
:1014E00046FF1BB908F47FEF8195889400C0002C5B
:1014F0001BB9F0FC270F00C0002C0BB900C000C0C6
:1015000045FF1BB927958894F1FC270F00C0002CDC
:101510001BB92795889400C0002C0BB900C000C0EF
:1015200044FF1BB9F2FC270F2795889400C0002CBC
:101530001BB9F3FC270F00C0002C0BB900C000C082
:1015400043FF1BB927958894F4FC270F00C0002C9B
:101550001BB92795889400C0002C0BB900C000C0AF
:1015600042FF1BB9F5FC270F2795889400C0002C7B
:101570001BB9F6FC270F00C0002C0BB900C000C03F
:1015800041FF1BB927958894F7FC270F00C0002C5A
:101590001BB92795889400C0002C0BB900C000C06F
:1015A00040FF1BB9472FF110422F8C0D00C0002CBB
:1015B0001BB9119709F086CE20EE31E0D3010E94CD
:1015C000F121DC01CB01F4E0B695A79597958795BD
:1015D000FA95D1F730E020E0B901EAE96E9E060CF9
:1015E000611D7E9E600D711D1124670D711D860F9A
:1015F000971FA11DB11D893E43E09407A105B105C8
:1016000008F434C0885E9340A109B10942E0B69560
:10161000A795979587954A95D1F747E0849F080E3F
:10162000211D949F200D311D1124290F311D609122
:10163000140270E0860F971F820F931F40917A0269
:1016400050917B0260917C0270917D02292F33279B
:10165000420F531F611D711D40937A0250937B020C
:1016600060937C0270937D02809314027894C2018F
:10167000DF91CF911F910F91FF90EF90DF90CF906E
:10168000AF909F908F907F906F905F904F900C9451
:101690004B04559A08954F925F926F927F928F926A
:1016A0009F92AF92CF92DF92EF92FF920F931F9390
:1016B000CF93DF93EB010F962C010E945504F89411
:1016C000E881F9810BB100641BB11F7B1BB9CB848E
:1016D00088854C2D481B842F48879F846A807B8097
:1016E000FE84EC84DD84F394E394D3949E813F8163
:1016F0008984AA844281D30120E0622F722F7281F3
:10170000442788947111780F08F47FEF81958894AD
:10171000F0FC470F47958894F1FC470F4795889454
:10172000F2FC470F47958894F3FC470F4795889440
:10173000F4FC470F47958894F5FC470F479588942C
:10174000F6FC470F47958894F7FC470F4795889418
:10175000272FF110242F8C0D422F002C0BB900C025
:1017600000C047FF1BB970812227889400C0002C5D
:101770001BB97111790F00C0002C0BB900C000C05B
:1017800046FF1BB908F47FEF9195889400C0002CA8
:101790001BB9E0FC270F00C0002C0BB900C000C033
:1017A00045FF1BB927958894E1FC270F00C0002C4A
:1017B0001BB92795889400C0002C0BB900C000C04D
:1017C00044FF1BB9E2FC270F2795889400C0002C2A
:1017D0001BB9E3FC270F00C0002C0BB900C000C0F0
:1017E00043FF1BB927958894E4FC270F00C0002C09
:1017F0001BB92795889400C0002C0BB900C000C00D
:1018000042FF1BB9E5FC270F2795889400C0002CE8
:101810001BB9E6FC270F00C0002C0BB900C000C0AC
:1018200041FF1BB927958894E7FC270F00C0002CC7
:101830001BB92795889400C0002C0BB900C000C0CC
:1018400040FF1BB9472FE110422F980D00C0002C1C
:101850001BB900C000C0002C0BB900C000C047FF7E
:101860001BB971812227889400C0002C1BB971110B
:10187000730F00C0002C0BB900C000C046FF1BB99D
:1018800008F47FEFE90DF11D00C0002C1BB9D0FC5E
:10189000270F00C0002C0BB900C000C045FF1BB9CA
:1018A00027958894D1FC270F00C0002C1BB92795E1
:1018B000889400C0002C0BB900C000C044FF1BB9C5
:1018C000D2FC270F2795889400C0002C1BB9D3FCAD
:1018D000270F00C0002C0BB900C000C043FF1BB98C
:1018E00027958894D4FC270F00C0002C1BB927959E
:1018F000889400C0002C0BB900C000C042FF1BB987
:10190000D5FC270F2795889400C0002C1BB9D6FC66
:10191000270F00C0002C0BB900C000C041FF1BB94D
:1019200027958894D7FC270F00C0002C1BB927955A
:10193000889400C0002C0BB900C000C040FF1BB948
:10194000472FD110422F319500C0002C1BB93A0D02
:1019500000C000C00BB900C000C047FF1BB97281B6
:101960002227889400C0002C1BB97111780F00C089
:10197000002C0BB900C000C046FF1BB908F47FEF74
:101980008195889400C0002C1BB9F0FC270F00C083
:10199000002C0BB900C000C045FF1BB927958894E7
:1019A000F1FC270F00C0002C1BB92795889400C0BC
:1019B000002C0BB900C000C044FF1BB9F2FC270F7C
:1019C0002795889400C0002C1BB9F3FC270F00C09A
:1019D000002C0BB900C000C043FF1BB927958894A9
:1019E000F4FC270F00C0002C1BB92795889400C079
:1019F000002C0BB900C000C042FF1BB9F5FC270F3B
:101A00002795889400C0002C1BB9F6FC270F00C056
:101A1000002C0BB900C000C041FF1BB9279588946A
:101A2000F7FC270F00C0002C1BB92795889400C035
:101A3000002C0BB900C000C040FF1BB9472FF110AC
:101A4000422F8C0D00C0002C1BB9119709F086CED7
:101A500020EE31E0D3010E94F121DC01CB01F4E062
:101A6000B695A79597958795FA95D1F730E020E040
:101A7000B901EAE96E9E060C611D7E9E600D711D26
:101A80001124670D711D860F971FA11DB11D893E81
:101A900043E09407A105B10508F434C0885E934083
:101AA000A109B10942E0B695A795979587954A9502
:101AB000D1F747E0849F080E211D949F200D311D12
:101AC0001124290F311D6091140270E0860F971FB9
:101AD000820F931F40917A0250917B0260917C02A9
:101AE00070917D02292F3327420F531F611D711DF5
:101AF00040937A0250937B0260937C0270937D0244
:101B0000809314027894C201DF91CF911F910F91BD
:101B1000FF90EF90DF90CF90AF909F908F907F904D
:101B20006F905F904F900C944B04569A08954F928B
:101B30005F926F927F928F929F92AF92CF92DF923D
:101B4000EF92FF920F931F93CF93DF93EB010F96CA
:101B50002C010E945504F894E881F9810BB10068CA
:101B60001BB11F771BB9CB8488854C2D481B842F54
:101B700048879F846A807B80FE84EC84DD84F394B4
:101B8000E394D3949E813F818984AA844281D301C6
:101B900020E0622F722F7281442788947111780F90
:101BA00008F47FEF81958894F0FC470F479588945F
:101BB000F1FC470F47958894F2FC470F47958894AE
:101BC000F3FC470F47958894F4FC470F479588949A
:101BD000F5FC470F47958894F6FC470F4795889486
:101BE000F7FC470F47958894272FF110242F8C0D71
:101BF000422F002C0BB900C000C047FF1BB97081F9
:101C00002227889400C0002C1BB97111790F00C0E5
:101C1000002C0BB900C000C046FF1BB908F47FEFD1
:101C20009195889400C0002C1BB9E0FC270F00C0E0
:101C3000002C0BB900C000C045FF1BB92795889444
:101C4000E1FC270F00C0002C1BB92795889400C029
:101C5000002C0BB900C000C044FF1BB9E2FC270FE9
:101C60002795889400C0002C1BB9E3FC270F00C007
:101C7000002C0BB900C000C043FF1BB92795889406
:101C8000E4FC270F00C0002C1BB92795889400C0E6
:101C9000002C0BB900C000C042FF1BB9E5FC270FA8
:101CA0002795889400C0002C1BB9E6FC270F00C0C4
:101CB000002C0BB900C000C041FF1BB927958894C8
:101CC000E7FC270F00C0002C1BB92795889400C0A3
:101CD000002C0BB900C000C040FF1BB9472FE1101A
:101CE000422F980D00C0002C1BB900C000C0002C72
:101CF0000BB900C000C047FF1BB97181222788942F
:101D000000C0002C1BB97111730F00C0002C0BB95F
:101D100000C000C046FF1BB908F47FEFE90DF11DBC
:101D200000C0002C1BB9D0FC270F00C0002C0BB941
:101D300000C000C045FF1BB927958894D1FC270F30
:101D400000C0002C1BB92795889400C0002C0BB94B
:101D500000C000C044FF1BB9D2FC270F2795889410
:101D600000C0002C1BB9D3FC270F00C0002C0BB9FE
:101D700000C000C043FF1BB927958894D4FC270FEF
:101D800000C0002C1BB92795889400C0002C0BB90B
:101D900000C000C042FF1BB9D5FC270F27958894CF
:101DA00000C0002C1BB9D6FC270F00C0002C0BB9BB
:101DB00000C000C041FF1BB927958894D7FC270FAE
:101DC00000C0002C1BB92795889400C0002C0BB9CB
:101DD00000C000C040FF1BB9472FD110422F3195E2
:101DE00000C0002C1BB93A0D00C000C00BB900C0E8
:101DF00000C047FF1BB972812227889400C0002CC5
:101E00001BB97111780F00C0002C0BB900C000C0C5
:101E100046FF1BB908F47FEF8195889400C0002C21
:101E20001BB9F0FC270F00C0002C0BB900C000C08C
:101E300045FF1BB927958894F1FC270F00C0002CA3
:101E40001BB92795889400C0002C0BB900C000C0B6
:101E500044FF1BB9F2FC270F2795889400C0002C83
:101E60001BB9F3FC270F00C0002C0BB900C000C049
:101E700043FF1BB927958894F4FC270F00C0002C62
:101E80001BB92795889400C0002C0BB900C000C076
:101E900042FF1BB9F5FC270F2795889400C0002C42
:101EA0001BB9F6FC270F00C0002C0BB900C000C006
:101EB00041FF1BB927958894F7FC270F00C0002C21
:101EC0001BB92795889400C0002C0BB900C000C036
:101ED00040FF1BB9472FF110422F8C0D00C0002C82
:101EE0001BB9119709F086CE20EE31E0D3010E9494
:101EF000F121DC01CB01F4E0B695A7959795879584
:101F0000FA95D1F730E020E0B901EAE96E9E060CBF
:101F1000611D7E9E600D711D1124670D711D860F60
:101F2000971FA11DB11D893E43E09407A105B1058E
:101F300008F434C0885E9340A109B10942E0B69527
:101F4000A795979587954A95D1F747E0849F080E06
:101F5000211D949F200D311D1124290F311D6091E9
:101F6000140270E0860F971F820F931F40917A0230
:101F700050917B0260917C0270917D02292F332762
:101F8000420F531F611D711D40937A0250937B02D3
:101F900060937C0270937D02809314027894C20156
:101FA000DF91CF911F910F91FF90EF90DF90CF9035
:101FB000AF909F908F907F906F905F904F900C9418
:101FC0004B04579A08954F925F926F927F928F922F
:101FD0009F92AF92CF92DF92EF92FF920F931F9357
:101FE000CF93DF93EB010F962C010E945504F894D8
:101FF000E881F98105B1016015B11E7F15B9CB8467
:1020000088854C2D481B842F48879F846A807B805D
:10201000FE84EC84DD84F394E394D3949E813F8129
:102020008984AA844281D30120E0622F722F7281B9
:10203000442788947111780F08F47FEF8195889474
:10204000F0FC470F47958894F1FC470F479588941B
:10205000F2FC470F47958894F3FC470F4795889407
:10206000F4FC470F47958894F5FC470F47958894F3
:10207000F6FC470F47958894F7FC470F47958894DF
:10208000272FF110242F8C0D422F002C05B900C0F2
:1020900000C047FF15B970812227889400C0002C2A
:1020A00015B97111790F00C0002C05B900C000C02E
:1020B00046FF15B908F47FEF9195889400C0002C75
:1020C00015B9E0FC270F00C0002C05B900C000C006
:1020D00045FF15B927958894E1FC270F00C0002C17
:1020E00015B92795889400C0002C05B900C000C020
:1020F00044FF15B9E2FC270F2795889400C0002CF7
:1021000015B9E3FC270F00C0002C05B900C000C0C2
:1021100043FF15B927958894E4FC270F00C0002CD5
:1021200015B92795889400C0002C05B900C000C0DF
:1021300042FF15B9E5FC270F2795889400C0002CB5
:1021400015B9E6FC270F00C0002C05B900C000C07F
:1021500041FF15B927958894E7FC270F00C0002C94
:1021600015B92795889400C0002C05B900C000C09F
:1021700040FF15B9472FE110422F980D00C0002CE9
:1021800015B900C000C0002C05B900C000C047FF51
:1021900015B971812227889400C0002C15B97111DE
:1021A000730F00C0002C05B900C000C046FF15B970
:1021B00008F47FEFE90DF11D00C0002C15B9D0FC2B
:1021C000270F00C0002C05B900C000C045FF15B99D
:1021D00027958894D1FC270F00C0002C15B92795AE
:1021E000889400C0002C05B900C000C044FF15B998
:1021F000D2FC270F2795889400C0002C15B9D3FC7A
:10220000270F00C0002C05B900C000C043FF15B95E
:1022100027958894D4FC270F00C0002C15B927956A
:10222000889400C0002C05B900C000C042FF15B959
:10223000D5FC270F2795889400C0002C15B9D6FC33
:10224000270F00C0002C05B900C000C041FF15B920
:1022500027958894D7FC270F00C0002C15B9279527
:10226000889400C0002C05B900C000C040FF15B91B
:10227000472FD110422F319500C0002C15B93A0DCF
:1022800000C000C005B900C000C047FF15B9728189
:102290002227889400C0002C15B97111780F00C056
:1022A000002C05B900C000C046FF15B908F47FEF47
:1022B0008195889400C0002C15B9F0FC270F00C050
:1022C000002C05B900C000C045FF15B927958894BA
:1022D000F1FC270F00C0002C15B92795889400C089
:1022E000002C05B900C000C044FF15B9F2FC270F4F
:1022F0002795889400C0002C15B9F3FC270F00C067
:10230000002C05B900C000C043FF15B9279588947B
:10231000F4FC270F00C0002C15B92795889400C045
:10232000002C05B900C000C042FF15B9F5FC270F0D
:102330002795889400C0002C15B9F6FC270F00C023
:10234000002C05B900C000C041FF15B9279588943D
:10235000F7FC270F00C0002C15B92795889400C002
:10236000002C05B900C000C040FF15B9472FF1107F
:10237000422F8C0D00C0002C15B9119709F086CEA4
:1023800020EE31E0D3010E94F121DC01CB01F4E029
:10239000B695A79597958795FA95D1F730E020E007
:1023A000B901EAE96E9E060C611D7E9E600D711DED
:1023B0001124670D711D860F971FA11DB11D893E48
:1023C00043E09407A105B10508F434C0885E93404A
:1023D000A109B10942E0B695A795979587954A95C9
:1023E000D1F747E0849F080E211D949F200D311DD9
:1023F0001124290F311D6091140270E0860F971F80
:10240000820F931F40917A0250917B0260917C026F
:1024100070917D02292F3327420F531F611D711DBB
:1024200040937A0250937B0260937C0270937D020A
:10243000809314027894C201DF91CF911F910F9184
:10244000FF90EF90DF90CF90AF909F908F907F9014
:102450006F905F904F900C944B04209A08954F9288
:102460005F926F927F928F929F92AF92CF92DF9204
:10247000EF92FF920F931F93CF93DF93EB010F9691
:102480002C010E945504F894E881F98105B102609D
:1024900015B11D7F15B9CB8488854C2D481B842F21
:1024A00048879F846A807B80FE84EC84DD84F3947B
:1024B000E394D3949E813F818984AA844281D3018D
:1024C00020E0622F722F7281442788947111780F57
:1024D00008F47FEF81958894F0FC470F4795889426
:1024E000F1FC470F47958894F2FC470F4795889475
:1024F000F3FC470F47958894F4FC470F4795889461
:10250000F5FC470F47958894F6FC470F479588944C
:10251000F7FC470F47958894272FF110242F8C0D37
:10252000422F002C05B900C000C047FF15B97081CB
:102530002227889400C0002C15B97111790F00C0B2
:10254000002C05B900C000C046FF15B908F47FEFA4
:102550009195889400C0002C15B9E0FC270F00C0AD
:10256000002C05B900C000C045FF15B92795889417
:10257000E1FC270F00C0002C15B92795889400C0F6
:10258000002C05B900C000C044FF15B9E2FC270FBC
:102590002795889400C0002C15B9E3FC270F00C0D4
:1025A000002C05B900C000C043FF15B927958894D9
:1025B000E4FC270F00C0002C15B92795889400C0B3
:1025C000002C05B900C000C042FF15B9E5FC270F7B
:1025D0002795889400C0002C15B9E6FC270F00C091
:1025E000002C05B900C000C041FF15B9279588949B
:1025F000E7FC270F00C0002C15B92795889400C070
:10260000002C05B900C000C040FF15B9472FE110EC
:10261000422F980D00C0002C15B900C000C0002C3E
:1026200005B900C000C047FF15B971812227889401
:1026300000C0002C15B97111730F00C0002C05B932
:1026400000C000C046FF15B908F47FEFE90DF11D89
:1026500000C0002C15B9D0FC270F00C0002C05B914
:1026600000C000C045FF15B927958894D1FC270FFD
:1026700000C0002C15B92795889400C0002C05B91E
:1026800000C000C044FF15B9D2FC270F27958894DD
:1026900000C0002C15B9D3FC270F00C0002C05B9D1
:1026A00000C000C043FF15B927958894D4FC270FBC
:1026B00000C0002C15B92795889400C0002C05B9DE
:1026C00000C000C042FF15B9D5FC270F279588949C
:1026D00000C0002C15B9D6FC270F00C0002C05B98E
:1026E00000C000C041FF15B927958894D7FC270F7B
:1026F00000C0002C15B92795889400C0002C05B99E
:1027000000C000C040FF15B9472FD110422F3195AE
:1027100000C0002C15B93A0D00C000C005B900C0BA
:1027200000C047FF15B972812227889400C0002C91
:1027300015B97111780F00C0002C05B900C000C098
:1027400046FF15B908F47FEF8195889400C0002CEE
:1027500015B9F0FC270F00C0002C05B900C000C05F
:1027600045FF15B927958894F1FC270F00C0002C70
:1027700015B92795889400C0002C05B900C000C089
:1027800044FF15B9F2FC270F2795889400C0002C50
:1027900015B9F3FC270F00C0002C05B900C000C01C
:1027A00043FF15B927958894F4FC270F00C0002C2F
:1027B00015B92795889400C0002C05B900C000C049
:1027C00042FF15B9F5FC270F2795889400C0002C0F
:1027D00015B9F6FC270F00C0002C05B900C000C0D9
:1027E00041FF15B927958894F7FC270F00C0002CEE
:1027F00015B92795889400C0002C05B900C000C009
:1028000040FF15B9472FF110422F8C0D00C0002C4E
:1028100015B9119709F086CE20EE31E0D3010E9460
:10282000F121DC01CB01F4E0B695A795979587954A
:10283000FA95D1F730E020E0B901EAE96E9E060C86
:10284000611D7E9E600D711D1124670D711D860F27
:10285000971FA11DB11D893E43E09407A105B10555
:1028600008F434C0885E9340A109B10942E0B695EE
:10287000A795979587954A95D1F747E0849F080ECD
:10288000211D949F200D311D1124290F311D6091B0
:10289000140270E0860F971F820F931F40917A02F7
:1028A00050917B0260917C0270917D02292F332729
:1028B000420F531F611D711D40937A0250937B029A
:1028C00060937C0270937D02809314027894C2011D
:1028D000DF91CF911F910F91FF90EF90DF90CF90FC
:1028E000AF909F908F907F906F905F904F900C94DF
:1028F0004B04219A08954F925F926F927F928F922C
:102900009F92AF92CF92DF92EF92FF920F931F931D
:10291000CF93DF93EB010F962C010E945504F8949E
:10292000E881F98105B1046015B11B7F15B9CB842D
:1029300088854C2D481B842F48879F846A807B8024
:10294000FE84EC84DD84F394E394D3949E813F81F0
:102950008984AA844281D30120E0622F722F728180
:10296000442788947111780F08F47FEF819588943B
:10297000F0FC470F47958894F1FC470F47958894E2
:10298000F2FC470F47958894F3FC470F47958894CE
:10299000F4FC470F47958894F5FC470F47958894BA
:1029A000F6FC470F47958894F7FC470F47958894A6
:1029B000272FF110242F8C0D422F002C05B900C0B9
:1029C00000C047FF15B970812227889400C0002CF1
:1029D00015B97111790F00C0002C05B900C000C0F5
:1029E00046FF15B908F47FEF9195889400C0002C3C
:1029F00015B9E0FC270F00C0002C05B900C000C0CD
:102A000045FF15B927958894E1FC270F00C0002CDD
:102A100015B92795889400C0002C05B900C000C0E6
:102A200044FF15B9E2FC270F2795889400C0002CBD
:102A300015B9E3FC270F00C0002C05B900C000C089
:102A400043FF15B927958894E4FC270F00C0002C9C
:102A500015B92795889400C0002C05B900C000C0A6
:102A600042FF15B9E5FC270F2795889400C0002C7C
:102A700015B9E6FC270F00C0002C05B900C000C046
:102A800041FF15B927958894E7FC270F00C0002C5B
:102A900015B92795889400C0002C05B900C000C066
:102AA00040FF15B9472FE110422F980D00C0002CB0
:102AB00015B900C000C0002C05B900C000C047FF18
:102AC00015B971812227889400C0002C15B97111A5
:102AD000730F00C0002C05B900C000C046FF15B937
:102AE00008F47FEFE90DF11D00C0002C15B9D0FCF2
:102AF000270F00C0002C05B900C000C045FF15B964
:102B000027958894D1FC270F00C0002C15B9279574
:102B1000889400C0002C05B900C000C044FF15B95E
:102B2000D2FC270F2795889400C0002C15B9D3FC40
:102B3000270F00C0002C05B900C000C043FF15B925
:102B400027958894D4FC270F00C0002C15B9279531
:102B5000889400C0002C05B900C000C042FF15B920
:102B6000D5FC270F2795889400C0002C15B9D6FCFA
:102B7000270F00C0002C05B900C000C041FF15B9E7
:102B800027958894D7FC270F00C0002C15B92795EE
:102B9000889400C0002C05B900C000C040FF15B9E2
:102BA000472FD110422F319500C0002C15B93A0D96
:102BB00000C000C005B900C000C047FF15B9728150
:102BC0002227889400C0002C15B97111780F00C01D
:102BD000002C05B900C000C046FF15B908F47FEF0E
:102BE0008195889400C0002C15B9F0FC270F00C017
:102BF000002C05B900C000C045FF15B92795889481
:102C0000F1FC270F00C0002C15B92795889400C04F
:102C1000002C05B900C000C044FF15B9F2FC270F15
:102C20002795889400C0002C15B9F3FC270F00C02D
:102C3000002C05B900C000C043FF15B92795889442
:102C4000F4FC270F00C0002C15B92795889400C00C
:102C5000002C05B900C000C042FF15B9F5FC270FD4
:102C60002795889400C0002C15B9F6FC270F00C0EA
:102C7000002C05B900C000C041FF15B92795889404
:102C8000F7FC270F00C0002C15B92795889400C0C9
:102C9000002C05B900C000C040FF15B9472FF11046
:102CA000422F8C0D00C0002C15B9119709F086CE6B
:102CB00020EE31E0D3010E94F121DC01CB01F4E0F0
:102CC000B695A79597958795FA95D1F730E020E0CE
:102CD000B901EAE96E9E060C611D7E9E600D711DB4
:102CE0001124670D711D860F971FA11DB11D893E0F
:102CF00043E09407A105B10508F434C0885E934011
:102D0000A109B10942E0B695A795979587954A958F
:102D1000D1F747E0849F080E211D949F200D311D9F
:102D20001124290F311D6091140270E0860F971F46
:102D3000820F931F40917A0250917B0260917C0236
:102D400070917D02292F3327420F531F611D711D82
:102D500040937A0250937B0260937C0270937D02D1
:102D6000809314027894C201DF91CF911F910F914B
:102D7000FF90EF90DF90CF90AF909F908F907F90DB
:102D80006F905F904F900C944B04229A08950F938C
:102D90001F93CF93DF93CDB7DEB762970FB6F8944A
:102DA000DEBF0FBECDBF8C01F901DC011C968C91FA
:102DB0007A8369835C834B835E834D8390819D8797
:102DC00091819E8792819F878130F1F4CE01019697
:102DD0000E940E0483E0888B1A8A198AD801ED912B
:102DE000FC910484F585E02DBE016F5F7F4FC80123
:102DF000099562960FB6F894DEBF0FBECDBFDF9186
:102E0000CF911F910F9108951C861B861A861986F3
:102E100018861F82DFCF0F931F93CF93DF93CDB719
:102E2000DEB762970FB6F894DEBF0FBECDBF8C0140
:102E3000F901DC011C968C917A8369835C834B8356
:102E40005E834D8390819D8791819E8792819F872C
:102E50008130E9F4CE0101960E940E04188A1A8A84
:102E6000198AD801ED91FC910484F585E02DBE010D
:102E70006F5F7F4FC801099562960FB6F894DEBF69
:102E80000FBECDBFDF91CF911F910F9108951C868A
:102E90001B861A86198618861F82E0CFFC0188E0FF
:102EA00091E091838083138212828FEF86838783E0
:102EB000808781878287838781E08487168615864D
:102EC000158214828091120290911302892B21F4B1
:102ED000F0931302E0931202A0911002B09111023C
:102EE000109721F01596FC93EE931497F09311022E
:102EF000E093100288E191E09183808308954F92DE
:102F00005F926F927F929F92AF92BF92CF92DF9229
:102F1000EF92FF920F931F93CF93DF9300D01F92F6
:102F2000CDB7DEB7EAE5F3E086ECC82E83E0D82E15
:102F300092E3E92E94E0F92E0EE914E06AE075E0E0
:102F400046E755E022EE35E0AEE4AA2EA6E0BA2E22
:102F50008FEF808381838283D6018C9311968C932B
:102F6000119712968C93D7018C9311968C9311978D
:102F700012968C93D8018C9311968C93119712967C
:102F80008C93DB018C9311968C93119712968C93F2
:102F9000DA018C9311968C93119712968C93D90128
:102FA0008C9311968C93119712968C93D5018C93D8
:102FB00011968C93119712968C933396B3E0CB0EA7
:102FC000D11C93E0E90EF11C0D5F1F4F6D5F7F4F29
:102FD0004D5F5F4F2D5F3F4FA3E0AA0EB11CB3E0E2
:102FE000E93CFB0709F0B5CFF090AE078091B1073F
:102FF0009091B207A091B307B091B407892B8A2BA7
:103000008B2BD9F00E94FD0200910C0210910D0251
:1030100020910E0230910F02601B710B820B930BFB
:103020000091B1071091B2072091B3073091B40716
:103030006017710782079307C8F20E94FD02609330
:103040000C0270930D0280930E0290930F02E09198
:10305000B907F091BA07309759F04091B5075091F0
:10306000B6076091B7077091B8078F2D0995F82EB4
:1030700000911202109113024F2C512C712C612CD3
:103080000115110509F45BC0F801E4848091AF07D4
:103090009091B0078436910508F41486D801ED911B
:1030A000FC91A280B38019821A821B82FF2089F1D1
:1030B000F8013696D12CC12C2191222319F192804E
:1030C000992001F130E050E040E02F5F3F4F4F4F3B
:1030D0005F4FC301B2010E94C7219B01AC01892D42
:1030E00090E0B0E0A0E0BC01CD016F5F7F4F8F4F5B
:1030F0009F4F0E94C721A1E0B0E0AC0FBD1FAC0DF7
:10310000BD1D8C93BFEFCB1ADB0A83E0C816D10438
:1031100099F6D8011D964D915C911E9712966D916E
:103120007C919E012F5F3F4FC801F5010995D801A1
:103130001C96EC921C9714960D911C91A1CF809136
:103140000A0290910B029C012F5F3F4F30930B02BC
:1031500020930A0249970CF445C08FB7F894209148
:103160007A0230917B0240917C0250917D028FBFA8
:10317000E0910A02F0910B0288EE93E0E89FB00123
:10318000E99F700DF89F700D1124072E000C880B1D
:10319000990BC0900602D0900702E0900802F090D0
:1031A00009022C193D094E095F090E9467203093DE
:1031B000B0072093AF0710920B0210920A022FB7AC
:1031C000F89480917A0290917B02A0917C02B09158
:1031D0007D022FBF8093060290930702A0930802FE
:1031E000B09309020F900F900F90DF91CF911F9134
:1031F0000F91FF90EF90DF90CF90BF90AF909F9096
:103200007F906F905F904F90089590E080E00895D8
:10321000FC01858596850895CF93DF9300D000D07B
:1032200000D0CDB7DEB7AB011C821D821E82DC014F
:10323000ED91FC910190F081E02D19821A821B82A0
:103240009E012F5F3F4FBE016C5F7F4F0995269611
:103250000FB6F894DEBF0FBECDBFDF91CF910895BA
:1032600042E050E062EE71E081E197E00C94A10150
:10327000CF93DF93682F81E197E00E944102EC0138
:103280000E9430198C0F9D1FDF91CF9108950F93ED
:103290001F93CF93DF938C01D0E0C0E0F801EC0FD7
:1032A000FD1F6491662341F081E197E00E94410295
:1032B000892B11F02196F2CF0E9430198C0F9D1F9F
:1032C000DF91CF911F910F9108950E940C228F9250
:1032D0009F92AF92BF92CF92DF92EF92FF920F93A5
:1032E0001F93CF93DF93C82E109259031092580367
:1032F000DD24D39420E7B22EEE24E394F12CAA240B
:10330000AA9445EE942E55EC852EC0915803D09189
:103310005903C830D1050CF02DC1C830A8F4D092A3
:10332000ED06B0920F071092EE0610921007B7014B
:103330000C2E01C0660F0A94EAF78BEB97E00E940F
:10334000DC0381E00E9401016091C9077091CA0706
:1033500061157105A1F588E690E00E94471970E0BB
:1033600060E0CC0FDD1FCA50DE4F79836883E091A7
:103370005803F0915903DF01AA0FBB1FAA50BE4F9B
:103380008D919C91DF01A05BBC4F0B9708F0F0C0C2
:103390008C918111A9C0DC92CC2009F4CAC0E8301C
:1033A000F10508F0A1C0E952F64E0C94EB21701A19
:1033B000841A871A8A1A8D1A901A931A961A80916B
:1033C000C707D092ED0680930F071092EE06109279
:1033D00010078BEB97E00E94DC0381E00E94010163
:1033E0008091C9079091CA078032910578F08232A6
:1033F000910518F08332910549F4839709F061C073
:1034000060E170E080E090E00E9422038091EC0691
:103410008111FCCF8091C707D092EC06D092EB06C9
:10342000A092EA061092E906D092E806D092C7066A
:103430009091C706880F892B8093C7068091C60696
:10344000813009F043C01092C6068091C706809370
:10345000BB008091BC0083FDF8CF8092BC008091BE
:10346000EC068130E1F38091E90692E0823010F4BD
:103470009091E906A8ECB6E0E6E1F2E080E089137D
:1034800028C01092870280938602823031F58BEB40
:1034900097E00E949503182F00E08BEB97E00E94C5
:1034A0009503802B912BBC0190E080E00E94392194
:1034B0002AE939E949E95FE30E9498200E940A213C
:1034C00050CF68E770E080E090E09ECF9092BC0023
:1034D000C6CF2D9121938F5FD2CF8FEF9FEFE3CF98
:1034E0008091BE060E94381969E170E080E090E0AA
:1034F0000E94220380915803909159030196909362
:1035000059038093580301CF8091BF06EBCF809180
:10351000BD06E8CF8091C006E5CF8091BC06E2CF22
:103520008091C106DFCF8091BB06DCCF8091C206BF
:10353000D9CFE830F105C0F6E056F54E0C94EB21FA
:10354000A81AAA1AAC1AAE1AB01AB21AB41AB61A33
:1035500086E4C8CF87E4C6CF85E4C4CF81E4C2CF78
:1035600084E4C0CF82E4BECF83E4BCCF88E4BACF8A
:103570001C92BACFDF91CF911F910F91FF90EF90E6
:10358000DF90CF90BF90AF909F908F9008951F9243
:103590000F920FB60F9211242F933F934F935F9387
:1035A0006F937F938F939F93AF93BF93EF93FF930B
:1035B00081E197E00E941F02FF91EF91BF91AF91CF
:1035C0009F918F917F916F915F914F913F912F913B
:1035D0000F900FBE0F901F9018951F920F920FB66D
:1035E0000F9211242F938F939F93EF93FF93E0916A
:1035F0002107F09122078081E0912707F0912807A9
:1036000082FD1BC0908180912A078F5F8F7320916C
:103610002B07821741F0E0912A07F0E0EF5EF84FA8
:10362000958F80932A07FF91EF919F918F912F9112
:103630000F900FBE0F901F9018958081F4CF1F92AE
:103640000F920FB60F9211242F933F938F939F9356
:10365000AF93BF9380917A0290917B02A0917C02FC
:10366000B0917D023091790223E0230F2D3758F578
:103670000196A11DB11D2093790280937A02909347
:103680007B02A0937C02B0937D0280917E02909198
:103690007F02A0918002B09181020196A11DB11D0F
:1036A00080937E0290937F02A0938002B093810268
:1036B000BF91AF919F918F913F912F910F900FBE2E
:1036C0000F901F90189526E8230F0296A11DB11D9B
:1036D000D2CF1F920F920FB60F9211242F933F93C8
:1036E0004F935F936F937F938F939F93AF93BF930A
:1036F000EF93FF938091B900887F803609F44AC028
:10370000F0F5883209F4A7C018F5803109F49BC0A0
:10371000B8F4882309F4F9C0883009F494C0FF9103
:10372000EF91BF91AF919F918F917F916F915F9139
:103730004F913F912F910F900FBE0F901F901895B2
:10374000883109F488C0803251F78093EA0614C0AA
:10375000803409F49DC040F48033B9F38833F9F61E
:103760008093EA0685ECB0C0803509F485C08835C1
:1037700009F496C0883499F60E945403D0CF883952
:1037800009F48CC038F5883729F050F4883611F0E8
:10379000803729F683E08093EC061092780257C0B8
:1037A000883809F47BC0803919F0803809F0B7CF28
:1037B00080917802803208F071C0E091780281E057
:1037C0008E0F809378028091BB00F0E0E85AFD4FA5
:1037D00080833DC0803B39F0E0F4803A09F479C041
:1037E000883A09F09CCF84E08093EC06109257024F
:1037F00010925602E0918402F09185020995809121
:10380000560281110FC081E0809356021092360259
:1038100009C0803C09F4A6CF883C09F4A3CF883BBB
:1038200009F07DCFE091570281E08E0F809357021F
:10383000F0E0EA5CFD4F80818093BB0090915702DD
:103840008091560229C08091C7068093BB0085EC09
:103850008093BC0064CF9091E9068091E8069817A8
:1038600058F5E091E90681E08E0F8093E906F0E0DB
:10387000E853F94F8081E9CFE091E90681E08E0FAE
:103880008093E9068091BB00F0E0E853F94F808314
:103890009091E9068091E8069817C8F285E8D8CF9C
:1038A000E091E90681E08E0F8093E9068091BB00EC
:1038B000F0E0E853F94F80838091EB0681115CCFF3
:1038C00081E08093C60684EA8093BC001092EC06E7
:1038D00026CF85EC8093BC001092EC068091780294
:1038E000803230F4E0917802F0E0E85AFD4F108227
:1038F0006091780270E0E0918202F091830288E5A5
:1039000092E00995109278020ACF1092EA0634CF1D
:10391000E1E1F7E01382128288EE93E0A0E0B0E0EC
:1039200084839583A683B78322EC31E0318320839F
:1039300025EC30E03587248724EC30E03787268774
:1039400020EC30E0318B208B21EC30E0338B228B6C
:1039500022EC30E0358B248B26EC30E0378B268B45
:10396000118E128E138E148EEEEAF7E02FEF208365
:1039700012821182148613864FEF5FEFBA014783DC
:10398000508761877287EBEBF7E0138212828483A2
:103990009583A683B78384ED91E091838083E7ECE0
:1039A000F7E01382128283E290E09183808308958E
:1039B000789484B5826084BD84B5816084BD85B50A
:1039C000826085BD85B5816085BD80916E00816016
:1039D00080936E00109281008091810082608093BC
:1039E00081008091810081608093810080918000BE
:1039F0008160809380008091B10084608093B100E9
:103A00008091B00081608093B00080917A008460E2
:103A100080937A0080917A00826080937A0080910E
:103A20007A00816080937A0080917A008068809328
:103A30007A001092C100E0912107F091220782E004
:103A40008083E0912107F09122071082E0911D0709
:103A5000F0911E071082E0911F07F091200780E18E
:103A6000808310922907E0912507F091260786E0D0
:103A70008083E0912307F091240780818061808317
:103A8000E0912307F0912407808188608083E09192
:103A90002307F0912407808180688083E0912307C9
:103AA000F091240780818F7D80838CE08093B80023
:103AB00010928702109286021092EE061092100762
:103AC0001092EC06C1E0C093EB061092C60682E1AC
:103AD0000E94D70283E10E94D7028091B9008E7FB5
:103AE0008093B9008091B9008D7F8093B90088E4FC
:103AF0008093B80085E48093BC008FE991E09093B7
:103B000085028093840280EA91E0909383028093FF
:103B100082028091C707C093ED0680930F07109231
:103B2000EE06109210076091C9078BEB97E00E9498
:103B3000DC0381E00E940101C82F6AE070E080E0B0
:103B400090E00E942203C23009F45DC150F4CC23FE
:103B500091F0C13009F453C18BE890E00E944719FD
:103B600010C0C33009F453C1C430B1F78BEA90E000
:103B70000E944719F1CF83E190E09093CA078093A8
:103B8000C90780E480937C0080917A0080648093F0
:103B90007A0080917A0086FDFCCF80917800609158
:103BA0007900762F682F072E000C880B990B611572
:103BB00071058105910511F00E942C2080919902D8
:103BC000811111C088E892E00E944E17109298026D
:103BD000109297028AE291E0909389028093880282
:103BE00081E0809399026AE573E088E892E00E94A0
:103BF0005E018091B202811111C081EA92E00E94BF
:103C00004E171092B1021092B0028CE391E09093A3
:103C1000A2028093A10281E08093B20266EC73E07D
:103C200081EA92E00E945E018091CB02811111C075
:103C30008AEB92E00E944E171092CA021092C902BB
:103C40008EE491E09093BB028093BA0281E080936E
:103C5000CB0262E374E08AEB92E00E945E01809105
:103C6000E402811111C083ED92E00E944E17109280
:103C7000E3021092E20280E691E09093D4028093F6
:103C8000D30281E08093E4026EE974E083ED92E078
:103C90000E945E018091FD02811111C08CEE92E0C4
:103CA0000E944E171092FC021092FB0282E791E0F4
:103CB0009093ED028093EC0281E08093FD026AE034
:103CC00075E08CEE92E00E945E01809116038111F6
:103CD00011C085E093E00E944E17109215031092D8
:103CE000140384E891E0909306038093050381E038
:103CF0008093160366E775E085E093E00E945E011D
:103D000080912F03811111C08EE193E00E944E1724
:103D100010922E0310922D0386E991E090931F03D9
:103D200080931E0381E080932F0362EE75E08EE1A5
:103D300093E00E945E0180914803811111C087E3E6
:103D400093E00E944E17109247031092460388EAB0
:103D500091E0909338038093370381E08093480388
:103D60006EE476E087E393E00E945E018FEF80933C
:103D7000AE0710925003109251031092520310920A
:103D8000530310925403109255031092560310924D
:103D9000570388E090E09093590380935803109262
:103DA000C30699E9292E91E0392E25E8E22E21E07B
:103DB000F22E31E7C32E31E0D32E47E0442E512CB2
:103DC000612C712C58E0A52EB12C60E0862E60E0AD
:103DD000962EC8E5F1018491F7011491F601049142
:103DE00001111AC080E08093BA068091C4069091B8
:103DF000C506009709F046C00E947F1730C08EE2CA
:103E000091E00E94471989EF90E00E94471987ECE2
:103E100090E00E944719AACE81110E94AE02E02FC5
:103E2000F0E0EE0FFF1FE55AFE4FA591B4918C9183
:103E30001823C1F28091BA06882311F081E0D3CF14
:103E40008091C4069091C50621E02093BA060196A0
:103E50008330910584F49093C5068093C406811441
:103E6000910409F4B7CF0E940B02882309F4B2CF62
:103E70000E940000AFCF1092C5061092C4061092A7
:103E8000C306EDCF8130910509F044C08091C3068F
:103E900081113AC04FE050E065EE71E081E197E0BA
:103EA0000E94A1010E943019C093BB06C093BC06BA
:103EB000C093BD06C093BE06C093BF06C093C006A4
:103EC000C093C106C093C20606EB11E00E94DD1F3D
:103ED000A30192010E943520FB01E554F94F808136
:103EE000883539F0CB010196B5010E94D721BC017C
:103EF000F3CFD8018D918D018083B1E00E3B1B077C
:103F000029F781E08093C3060E947F1781E00E9419
:103F10006719A5CF029709F0A2CF0E947F1780E012
:103F2000F6CF8F929F92AF92BF92CF92DF92EF9295
:103F3000FF92CF93DF93EC01688179818A819B8125
:103F4000611571058105910521F464E279ED8BE538
:103F500097E02DE133EF41E050E00E943520490128
:103F60005A019B01AC01A7EAB1E40E9454206B0105
:103F70007C01ACEEB4EFA50194010E946220C60E54
:103F8000D71EE81EF91EF7FE06C081E0C81AD10848
:103F9000E10880E8F80AC882D982EA82FB82C70178
:103FA000B6019F77DF91CF91FF90EF90DF90CF9098
:103FB000BF90AF909F908F9008958F929F92AF92F5
:103FC000BF92CF92DF92EF92FF92609100017091C9
:103FD0000101809102019091030161157105810534
:103FE000910521F464E279ED8BE597E02DE133EF63
:103FF00041E050E00E94352049015A019B01AC018B
:10400000A7EAB1E40E9454206B017C01ACEEB4EF4E
:10401000A50194010E946220C60ED71EE81EF91E5B
:10402000F7FE06C081E0C81AD108E10880E8F80A66
:10403000C0920001D0920101E0920201F0920301CE
:10404000C701B6019F77FF90EF90DF90CF90BF90B0
:10405000AF909F908F90089560930001709301013D
:1040600080930201909303010895052E97FB1EF49F
:1040700000940E944C2057FD07D00E94672007FC47
:1040800003D04EF40C944C205095409530952195DA
:104090003F4F4F4F5F4F0895909580957095619574
:1040A0007F4F8F4F9F4F08950E948920A59F900DAD
:1040B000B49F900DA49F800D911D11240895B7FF0A
:1040C0000C9454200E945420821B930B0895A1E26B
:1040D0001A2EAA1BBB1BFD010DC0AA1FBB1FEE1F82
:1040E000FF1FA217B307E407F50720F0A21BB30BCD
:1040F000E40BF50B661F771F881F991F1A9469F749
:1041000060957095809590959B01AC01BD01CF01A4
:104110000895A29FB001B39FC001A39F700D811DA0
:104120001124911DB29F700D811D1124911D0895C0
:104130000E94AC200C948D210E94862158F00E9490
:104140007F2140F029F45F3F29F00C947621511132
:104150000C94C1210C947C210E949E2168F3992328
:10416000B1F3552391F3951B550BBB27AA27621773
:104170007307840738F09F5F5F4F220F331F441F80
:10418000AA1FA9F335D00E2E3AF0E0E832D09150B4
:104190005040E695001CCAF72BD0FE2F29D0660FA1
:1041A000771F881FBB1F261737074807AB07B0E8E4
:1041B00009F0BB0B802DBF01FF2793585F4F3AF0EA
:1041C0009E3F510578F00C9476210C94C1215F3FFD
:1041D000E4F3983ED4F3869577956795B795F79570
:1041E0009F5FC9F7880F911D9695879597F9089558
:1041F000E1E0660F771F881FBB1F621773078407F4
:10420000BA0720F0621B730B840BBA0BEE1F88F702
:10421000E09508950E94A62188F09F5798F0B92F45
:104220009927B751B0F0E1F0660F771F881F991FEB
:104230001AF0BA95C9F714C0B13091F00E94C021AC
:10424000B1E008950C94C021672F782F8827B85FBC
:1042500039F0B93FCCF3869577956795B395D9F743
:104260003EF490958095709561957F4F8F4F9F4F4D
:104270000895E89409C097FB3EF490958095709559
:1042800061957F4F8F4F9F4F9923A9F0F92F96E9A2
:10429000BB279395F695879577956795B795F11117
:1042A000F8CFFAF4BB0F11F460FF1BC06F5F7F4FB4
:1042B0008F4F9F4F16C0882311F096E911C07723C6
:1042C00021F09EE8872F762F05C0662371F096E8CF
:1042D000862F70E060E02AF09A95660F771F881F9E
:1042E000DAF7880F9695879597F9089597F99F675C
:1042F00080E870E060E008959FEF80EC089500246E
:104300000A941616170618060906089500240A943A
:1043100012161306140605060895092E0394000CC0
:1043200011F4882352F0BB0F40F4BF2B11F460FF4F
:1043300004C06F5F7F4F8F4F9F4F089557FD905878
:10434000440F551F59F05F3F71F04795880F97FB59
:10435000991F61F09F3F79F0879508951216130613
:104360001406551FF2CF4695F1DF08C01616170642
:104370001806991FF1CF8695710561050894089577
:10438000E894BB2766277727CB0197F90895DB01CF
:104390008F939F930E945420BF91AF91A29F800D55
:1043A000911DA39F900DB29F900D1124089597FB2E
:1043B000072E16F4009407D077FD09D00E94F8214B
:1043C00007FC05D03EF4909581959F4F0895709518
:1043D00061957F4F0895EE0FFF1F0590F491E02D3A
:1043E00009940E948920B7FF0895821B930B0895BA
:1043F000AA1BBB1B51E107C0AA1FBB1FA617B7070B
:1044000010F0A61BB70B881F991F5A95A9F7809526
:104410009095BC01CD01089581E090E0F8940C9452
:064420001122F894FFCF09
:1044260001000000000000006519651965190C19E6
:1044360008190519000000000B17C71665190C1995
:10444600081905196519000000000B17C716B106F3
:104456000C190819AE066404000000000B17C716F5
:10446600FD080C190819AE06B306000000000B176C
:10447600C716490B0C190819AE06FF080000000004
:104486000B17C716950D0C190819AE064B0B000035
:1044960000000B17C716E10F0C190819AE06970D89
:1044A600000000000B17C7162D120C190819AE06CE
:1044B600E30F000000000B17C71679140C19081932
:1044C600AE062F12000000000B17C716C5160C19F2
:1044D6000819AE067B14434445464741424800004E
:1044E60000004102A101CE018E02FF01DD01F101B2
:1044F60000000000DC03AF030B048503A80395034B
:1045060086030D0A0052616E646F6D697A65206ECE
:064516006F746521000036
:107800000C94343C0C94513C0C94513C0C94513CE1
:107810000C94513C0C94513C0C94513C0C94513CB4
:107820000C94513C0C94513C0C94513C0C94513CA4
:107830000C94513C0C94513C0C94513C0C94513C94
:107840000C94513C0C94513C0C94513C0C94513C84
:107850000C94513C0C94513C0C94513C0C94513C74
:107860000C94513C0C94513C11241FBECFEFD8E036
:10787000DEBFCDBF11E0A0E0B1E0ECE9FFE702C060
:1078800005900D92A230B107D9F712E0A2E0B1E065
:1078900001C01D92AD30B107E1F70E942D3D0C945F
:1078A000CC3F0C94003C982F959595959595959582
:1078B000905D8F708A307CF0282F295A8091C0000B
:1078C00085FFFCCF9093C6008091C00085FFFCCF60
:1078D0002093C6000895282F205DF0CF982F809127
:1078E000C00085FFFCCF9093C6000895EF92FF92F1
:1078F0000F931F93EE24FF2487018091C00087FD22
:1079000017C00894E11CF11C011D111D81E4E8164B
:1079100082E4F8068FE0080780E0180770F3E09132
:107920000401F091050109958091C00087FFE9CF1E
:107930008091C6001F910F91FF90EF9008950E94D3
:10794000763C982F8091C00085FFFCCF9093C600B5
:1079500091362CF490330CF09053892F089597555D
:10796000892F08951F930E949F3C182F0E949F3CCF
:107970001295107F810F1F9108951F93182F882350
:1079800021F00E94763C1150E1F71F9108951F935A
:10799000182F0E94763C803249F0809103018F5F5E
:1079A000809303018530C1F01F9108958091C0003C
:1079B00085FFFCCF84E18093C6008091C00085FFE5
:1079C000FCCF1093C6008091C00085FFFCCF80E102
:1079D0008093C6001F910895E0910401F091050184
:1079E00009951F9108950E94763C803241F0809164
:1079F00003018F5F80930301853081F008958091AA
:107A0000C00085FFFCCF84E18093C6008091C00058
:107A100085FFFCCF80E18093C6000895E0910401CA
:107A2000F09105010995089540E951E08823A1F0FE
:107A30002D9A28EE33E0FA013197F1F721503040CA
:107A4000D1F72D9828EE33E0FA013197F1F7215064
:107A50003040D1F7815061F708953F924F925F9285
:107A60006F927F928F929F92AF92BF92CF92DF924E
:107A7000EF92FF920F931F93CF93DF93000080E16B
:107A80008093C4001092C50088E18093C10086E015
:107A90008093C2005098589A259A81E00E94143D24
:107AA00024E1F22E9EE1E92E85E9D82E0FE0C02ECA
:107AB00010E1B12EAA24A394B1E49B2EA6E58A2E50
:107AC000F2E57F2EE0E26E2E79E4572E63E5462E36
:107AD00050E5352E0E94763C8033B1F18133B9F107
:107AE000803409F46FC0813409F476C0823409F41B
:107AF00085C0853409F488C0803531F1823521F1A3
:107B0000813511F1853509F485C0863509F48DC0BC
:107B1000843609F496C0843709F403C1853709F423
:107B200072C1863709F466C0809103018F5F80932C
:107B30000301853079F6E0910401F0910501099582
:107B40000E94763C803351F60E94F33CC3CF0E94E2
:107B5000763C803249F78091C00085FFFCCFF092DF
:107B6000C6008091C00085FFFCCF9092C600809136
:107B7000C00085FFFCCF8092C6008091C00085FFC9
:107B8000FCCF7092C6008091C00085FFFCCF609250
:107B9000C6008091C00085FFFCCF5092C600809146
:107BA000C00085FFFCCF4092C6008091C00085FFD9
:107BB000FCCF3092C6008091C00085FFFCCFB09210
:107BC000C60088CF0E94763C863808F4BDCF0E945C
:107BD000763C0E94F33C7ECF0E94763C803809F4CC
:107BE0009CC0813809F40BC1823809F43CC1883942
:107BF00009F48FC080E00E94C73C6CCF84E10E94F2
:107C0000BD3C0E94F33C66CF85E00E94BD3C0E94D3
:107C1000F33C60CF0E94763C809306010E94763C44
:107C2000809307010E94F33C55CF0E94763C80333D
:107C300009F41DC183E00E94BD3C80E00E94C73C66
:107C400049CF0E94763C809309020E94763C809343
:107C5000080280910C028E7F80930C020E94763C79
:107C6000853409F415C18091080290910902892B8D
:107C700089F000E010E00E94763CF801E85FFE4FDA
:107C800080830F5F1F4F80910802909109020817AF
:107C9000190788F30E94763C803209F045CF809125
:107CA0000C0280FF01C16091060170910701660F0F
:107CB000771F7093070160930601A0910802B091AD
:107CC00009021097C9F0E8E0F1E09B01AD014E0F09
:107CD0005F1FF999FECF32BD21BD819180BDFA9A17
:107CE000F99A2F5F3F4FE417F50799F76A0F7B1F4B
:107CF00070930701609306018091C00085FFFCCF5F
:107D0000F092C6008091C00085FFFCCFB092C60003
:107D1000E1CE83E00E94C73CDDCE82E00E94C73CFA
:107D2000D9CE0E94763C809309020E94763C8093D3
:107D300008028091060190910701880F991F909386
:107D40000701809306010E94763C853409F4A6C0A1
:107D500080910C028E7F80930C020E94763C8032D0
:107D600009F0B8CE8091C00085FFFCCFF092C6002C
:107D7000609108027091090261157105B9F140E046
:107D800050E080910C02A82FA170B82FB27011C0E2
:107D9000BB2309F45CC0E0910601F0910701319624
:107DA000F0930701E09306014F5F5F4F46175707B7
:107DB000E8F4AA2369F3F999FECF209106013091E6
:107DC000070132BD21BDF89A90B58091C00085FFB2
:107DD000FCCF9093C6002F5F3F4F30930701209355
:107DE00006014F5F5F4F4617570718F38091C00099
:107DF00085FDE5CE8091C00085FFF8CFE0CE81E023
:107E00000E94C73C67CE0E94763C803209F08CCE3F
:107E10008091C00085FFFCCFF092C6008091C00029
:107E200085FFFCCFE092C6008091C00085FFFCCFAB
:107E3000D092C6008091C00085FFFCCFC092C600E2
:107E40008091C00085FFFCCFB092C60043CEE09188
:107E50000601F091070194918091C00085FFFCCF4D
:107E60009093C6009CCF80E10E94C73C33CE0E9415
:107E7000763C0E94763C182F0E94763C112309F430
:107E800083C0113009F484C08FE00E94C73C22CE29
:107E900080910C02816080930C02E5CE80910C02EF
:107EA000816080930C0259CF809107018823880F4D
:107EB000880B8A2180930B02809106019091070123
:107EC000880F991F90930701809306018091080203
:107ED00080FF09C080910802909109020196909359
:107EE000090280930802F894F999FECF1127E091D6
:107EF0000601F0910701C8E0D1E08091080290915D
:107F00000902103091F40091570001700130D9F34B
:107F100003E000935700E89500915700017001308D
:107F2000D9F301E100935700E89509901990009169
:107F3000570001700130D9F301E000935700E89534
:107F40001395103498F011270091570001700130FB
:107F5000D9F305E000935700E895009157000170B0
:107F60000130D9F301E100935700E895329602976A
:107F700009F0C7CF103011F00296E5CF112480919F
:107F8000C00085FFB9CEBCCE8EE10E94C73CA2CD19
:0C7F900085E90E94C73C9ECDF894FFCF0D
:027F9C00800063
:040000030000780081
:00000001FF
