:100000000C94D2000C94FA000C94FA000C94FA00B0
:100010000C94FA000C94FA000C94FA000C94FA0078
:100020000C94FA000C94FA000C94FA000C94FA0068
:100030000C94FA000C94FA000C94FA000C94FA0058
:100040000C942C180C94FA000C94FA170C94D417F6
:100050000C94FA000C94FA000C94FA000C94FA0038
:100060000C9476180C94FA005B4248313735305DB9
:10007000204552524F523A20756E646566696E652E
:1000800064206572726F72005B4248313735305DB3
:10009000204552524F523A206F7468657220657243
:1000A000726F72005B4248313735305D20455252E5
:1000B0004F523A207265636569766564204E41430C
:1000C0004B206F6E207472616E736D6974206F6661
:1000D0002064617461005B4248313735305D2045F2
:1000E00052524F523A207265636569766564204EBC
:1000F00041434B206F6E207472616E736D69742082
:100100006F662061646472657373005B42483137C7
:1001100035305D204552524F523A20746F6F206C3B
:100120006F6E6720666F72207472616E736D697492
:1001300020627566666572005B4248313735305D16
:1001400020446576696365206973206E6F7420634F
:100150006F6E666967757265642100000000002596
:100160000028002B00040404040404040402020216
:1001700002020203030303030301020408102040E8
:100180008001020408102001020408102000000071
:100190000800020100000304070000000000000046
:1001A0000000951911241FBECFEFD8E0DEBFCDBFF0
:1001B00011E0A0E0B1E0E0E9F2E402C005900D92A8
:1001C000A63FB107D9F727E0A6EFB1E001C01D9225
:1001D000A73CB207E1F710E0C2EDD0E004C02197E0
:1001E000FE010E942021C13DD107C9F70E94E519F7
:1001F0000C9446210C940000982F20910C0781E06C
:10020000213208F043C08091E8068111FCCF809133
:100210000B0732E03093E8069093E7069FEF909348
:10022000E6061092E5062093E406ABEEB6E0E4ECB9
:10023000F6E090E0291331C01092C3069091C306F6
:10024000880F892B8093C3068091C206813049F5BF
:100250001092C2068091C3068093BB008091BC00BF
:1002600083FDF8CF85EC8093BC008091E806823056
:10027000E1F38091E6068F3FB1F08091E60680328F
:10028000A1F08091E606803391F084E01092EA06B6
:1002900010920C071092E90608953D9131939F5FEB
:1002A000C9CF85EEE0CF80E0F1CF82E0EFCF83E0F1
:1002B000EDCF0F931F93CF93DF93EC018B01E88178
:1002C000F9810480F581E02D09951B830A8384E27E
:1002D00090E09E878D87E881F9810284F385E02D87
:1002E000CE010995009701F19C0150E040E060E4E7
:1002F00072E48FE090E00E946A1F8091AD079091B8
:10030000AE07A091AF07B091B00782179307A4077B
:10031000B50710F4DA01C9018093AD079093AE07D9
:10032000A093AF07B093B007CE01DF91CF911F919B
:100330000F91089590E0FC01E357FE4F2491FC01DA
:10034000E758FE4F3491FC01EB59FE4FE491EE2348
:10035000B1F0222339F02330E9F090F4213001F19B
:10036000223011F1F0E0EE0FFF1FE55AFE4FA5918C
:10037000B4918FB7F894EC913E2B3C938FBF0895C6
:100380002730A9F02830C9F0243061F7809180002F
:100390008F7D03C0809180008F7780938000E2CFB3
:1003A00084B58F7784BDDECF84B58F7DFBCF809100
:1003B000B0008F778093B000D5CF8091B0008F7D53
:1003C000F9CF80919F0690919E06891B990B089505
:1003D00008950895AF92BF92CF92DF92EF92FF926D
:1003E0000F931F93CF93DF936C017B018B01040F5D
:1003F000151FEB015E01AE18BF08C017D10759F0F9
:100400006991D601ED91FC910190F081E02DC6013A
:100410000995892B79F7C501DF91CF911F910F9134
:10042000FF90EF90DF90CF90BF90AF900895FC01C8
:10043000538D448D252F30E0842F90E0821B930B49
:10044000541710F0CF96089501970895FC01918DEF
:10045000828D981761F0A28DAE0FBF2FB11D5D96F2
:100460008C91928D9F5F9F73928F90E008958FEF94
:100470009FEF0895FC01918D828D981731F0828D48
:10048000E80FF11D858D90E008958FEF9FEF08959F
:10049000FC01918D228D892F90E0805C9F4F821B03
:1004A00091098F73992708958DE097E00E94480283
:1004B00021E0892B09F420E0822F089580E090E06C
:1004C000892B29F00E94540281110C940000089598
:1004D000FC01A48DA80FB92FB11DA35ABF4F2C91B9
:1004E000848D90E001968F739927848FA689B789B0
:1004F0002C93A089B1898C91837080648C93938DA7
:10050000848D981306C00288F389E02D80818F7D49
:1005100080830895EF92FF920F931F93CF93DF9301
:10052000EC0181E0888F9B8D8C8D98131AC0E8892F
:10053000F989808185FF15C09FB7F894EE89FF89FE
:100540006083E889F98980818370806480839FBF9C
:1005500081E090E0DF91CF911F910F91FF90EF909C
:100560000895F62E0B8D10E00F5F1F4F0F731127AC
:10057000E02E8C8D8E110CC00FB607FCFACFE889E7
:10058000F989808185FFF5CFCE010E946802F1CF05
:10059000EB8DEC0FFD2FF11DE35AFF4FF0829FB75B
:1005A000F8940B8FEA89FB8980818062CFCFCF934B
:1005B000DF93EC01888D8823B9F0AA89BB89E8898B
:1005C000F9898C9185FD03C0808186FD0DC00FB631
:1005D00007FCF7CF8C9185FFF2CF808185FFEDCFAF
:1005E000CE010E946802E9CFDF91CF9108953FB715
:1005F000F89480913E0290913F02A0914002B09108
:10060000410226B5A89B05C02F3F19F00196A11DF8
:10061000B11D3FBFBA2FA92F982F8827BC01CD014C
:10062000620F711D811D911D42E0660F771F881FAB
:10063000991F4A95D1F708958F929F92AF92BF92DA
:10064000CF92DF92EF92FF924B015C010E94F70282
:100650006B017C010E94F7026C197D098E099F09CC
:10066000683E734081059105A8F321E0821A910844
:10067000A108B10888EEC80E83E0D81EE11CF11C69
:1006800081149104A104B10429F7FF90EF90DF9049
:10069000CF90BF90AF909F908F90089585ED8093FD
:1006A000BC008091BC0084FDFCCF1092E806089548
:1006B00020911A02260F3327331F21323105ECF423
:1006C0002091E806FC0190E080E0243069F082E0AF
:1006D0000895A0911A022191AC0146505E4FA40FDB
:1006E000B52FB11D2C930196861798F380911A02AD
:1006F000680F60931A0280E0089581E008950895DC
:10070000E0919E0680919F06E81730F4F0E0E258F1
:10071000F94F808190E008958FEF9FEF08959091B9
:100720009E0680919F062FEF3FEF981748F4E92F20
:10073000F0E0E258F94F208130E09F5F90939E06F1
:10074000C9010895CF92DF92EF92FF920F931F930A
:10075000CF93DF937C01CB018A012091E90622230C
:1007600089F0EB016B01C40ED51ECC15DD0569F0D7
:100770006991D701ED91FC910190F081E02DC701C5
:100780000995F3CF642F0E945803C801DF91CF91E0
:100790001F910F91FF90EF90DF90CF900895CF932E
:1007A000DF931F92CDB7DEB769832091E90622233C
:1007B000F9F020910C07203258F021E030E0FC01E4
:1007C0003383228390E080E00F90DF91CF910895F2
:1007D0008091EA06E82FF0E0E551F94F9981908386
:1007E0008F5F8093EA0680930C0781E090E0ECCF66
:1007F00061E0CE0101960E945803F7CF90E080E0BF
:1008000008950F931F93CF93DF932091F9012F5FEA
:10081000322F37703093F90120FF2BC020E831FDD3
:100820002064347009F02062205FFC01EC01239603
:1008300000E011E06485662329F070E0C8010E94A1
:100840000C216F5F6187322F369F030E30E0311D20
:100850001124311110C01682662311F06150618796
:100860003196EC17FD0731F7DF91CF911F910F9172
:10087000089520E0D4CF31503683EECFCF93DF936D
:10088000EC010E94F70279836883DF91CF9108958C
:10089000CF93DF93EC010E94F70228813981621B1C
:1008A000730B6A307105B8F3DF91CF9108954F92C1
:1008B0005F926F927F928F929F92AF92CF92DF92D0
:1008C000EF92FF920F931F93CF93DF93EB010F965D
:1008D0002C010E944804F894E881F9810BB108606A
:1008E0001BB1177F1BB9CB8488854C2D481B842FE7
:1008F00048879F846A807B80FE84EC84DD84F39447
:10090000E394D3949E813F818984AA844281D30158
:1009100020E0622F722F7281442788947111780F22
:1009200008F47FEF81958894F0FC470F47958894F1
:10093000F1FC470F47958894F2FC470F4795889440
:10094000F3FC470F47958894F4FC470F479588942C
:10095000F5FC470F47958894F6FC470F4795889418
:10096000F7FC470F47958894272FF110242F8C0D03
:10097000422F002C0BB900C000C047FF1BB970818B
:100980002227889400C0002C1BB97111790F00C078
:10099000002C0BB900C000C046FF1BB908F47FEF64
:1009A0009195889400C0002C1BB9E0FC270F00C073
:1009B000002C0BB900C000C045FF1BB927958894D7
:1009C000E1FC270F00C0002C1BB92795889400C0BC
:1009D000002C0BB900C000C044FF1BB9E2FC270F7C
:1009E0002795889400C0002C1BB9E3FC270F00C09A
:1009F000002C0BB900C000C043FF1BB92795889499
:100A0000E4FC270F00C0002C1BB92795889400C078
:100A1000002C0BB900C000C042FF1BB9E5FC270F3A
:100A20002795889400C0002C1BB9E6FC270F00C056
:100A3000002C0BB900C000C041FF1BB9279588945A
:100A4000E7FC270F00C0002C1BB92795889400C035
:100A5000002C0BB900C000C040FF1BB9472FE110AC
:100A6000422F980D00C0002C1BB900C000C0002C04
:100A70000BB900C000C047FF1BB9718122278894C1
:100A800000C0002C1BB97111730F00C0002C0BB9F2
:100A900000C000C046FF1BB908F47FEFE90DF11D4F
:100AA00000C0002C1BB9D0FC270F00C0002C0BB9D4
:100AB00000C000C045FF1BB927958894D1FC270FC3
:100AC00000C0002C1BB92795889400C0002C0BB9DE
:100AD00000C000C044FF1BB9D2FC270F27958894A3
:100AE00000C0002C1BB9D3FC270F00C0002C0BB991
:100AF00000C000C043FF1BB927958894D4FC270F82
:100B000000C0002C1BB92795889400C0002C0BB99D
:100B100000C000C042FF1BB9D5FC270F2795889461
:100B200000C0002C1BB9D6FC270F00C0002C0BB94D
:100B300000C000C041FF1BB927958894D7FC270F40
:100B400000C0002C1BB92795889400C0002C0BB95D
:100B500000C000C040FF1BB9472FD110422F319574
:100B600000C0002C1BB93A0D00C000C00BB900C07A
:100B700000C047FF1BB972812227889400C0002C57
:100B80001BB97111780F00C0002C0BB900C000C058
:100B900046FF1BB908F47FEF8195889400C0002CB4
:100BA0001BB9F0FC270F00C0002C0BB900C000C01F
:100BB00045FF1BB927958894F1FC270F00C0002C36
:100BC0001BB92795889400C0002C0BB900C000C049
:100BD00044FF1BB9F2FC270F2795889400C0002C16
:100BE0001BB9F3FC270F00C0002C0BB900C000C0DC
:100BF00043FF1BB927958894F4FC270F00C0002CF5
:100C00001BB92795889400C0002C0BB900C000C008
:100C100042FF1BB9F5FC270F2795889400C0002CD4
:100C20001BB9F6FC270F00C0002C0BB900C000C098
:100C300041FF1BB927958894F7FC270F00C0002CB3
:100C40001BB92795889400C0002C0BB900C000C0C8
:100C500040FF1BB9472FF110422F8C0D00C0002C14
:100C60001BB9119709F086CE20EE31E0D3010E9426
:100C70002621DC01CB01F4E0B695A79597958795E1
:100C8000FA95D1F730E020E0B901EAE96E9E060C52
:100C9000611D7E9E600D711D1124670D711D860FF3
:100CA000971FA11DB11D893E43E09407A105B10521
:100CB00008F434C0885E9340A109B10942E0B695BA
:100CC000A795979587954A95D1F747E0849F080E99
:100CD000211D949F200D311D1124290F311D60917C
:100CE000F80170E0860F971F820F931F40910E034B
:100CF00050910F036091100370911103292F332736
:100D0000420F531F611D711D40930E0350930F033B
:100D100060931003709311038093F8017894C201DB
:100D2000DF91CF911F910F91FF90EF90DF90CF90C7
:100D3000AF909F908F907F906F905F904F900C94AA
:100D40003E0480E991E00895539A08954F925F928E
:100D50006F927F928F929F92AF92CF92DF92EF929B
:100D6000FF920F931F93CF93DF93EB010F962C010C
:100D70000E944804F894E881F9810BB100611BB12D
:100D80001F7E1BB9CB8488854C2D481B842F488738
:100D90009F846A807B80FE84EC84DD84F394E394FA
:100DA000D3949E813F818984AA844281D30120E02B
:100DB000622F722F7281442788947111780F08F482
:100DC0007FEF81958894F0FC470F47958894F1FC5C
:100DD000470F47958894F2FC470F47958894F3FC9A
:100DE000470F47958894F4FC470F47958894F5FC86
:100DF000470F47958894F6FC470F47958894F7FC72
:100E0000470F47958894272FF110242F8C0D422FE0
:100E1000002C0BB900C000C047FF1BB9708122270E
:100E2000889400C0002C1BB97111790F00C0002CF0
:100E30000BB900C000C046FF1BB908F47FEF9195C5
:100E4000889400C0002C1BB9E0FC270F00C0002CC8
:100E50000BB900C000C045FF1BB927958894E1FC81
:100E6000270F00C0002C1BB92795889400C0002CC8
:100E70000BB900C000C044FF1BB9E2FC270F279547
:100E8000889400C0002C1BB9E3FC270F00C0002C85
:100E90000BB900C000C043FF1BB927958894E4FC40
:100EA000270F00C0002C1BB92795889400C0002C88
:100EB0000BB900C000C042FF1BB9E5FC270F279506
:100EC000889400C0002C1BB9E6FC270F00C0002C42
:100ED0000BB900C000C041FF1BB927958894E7FCFF
:100EE000270F00C0002C1BB92795889400C0002C48
:100EF0000BB900C000C040FF1BB9472FE110422FC3
:100F0000980D00C0002C1BB900C000C0002C0BB90C
:100F100000C000C047FF1BB971812227889400C020
:100F2000002C1BB97111730F00C0002C0BB900C04D
:100F300000C046FF1BB908F47FEFE90DF11D00C0AA
:100F4000002C1BB9D0FC270F00C0002C0BB900C02F
:100F500000C045FF1BB927958894D1FC270F00C01E
:100F6000002C1BB92795889400C0002C0BB900C039
:100F700000C044FF1BB9D2FC270F2795889400C0FE
:100F8000002C1BB9D3FC270F00C0002C0BB900C0EC
:100F900000C043FF1BB927958894D4FC270F00C0DD
:100FA000002C1BB92795889400C0002C0BB900C0F9
:100FB00000C042FF1BB9D5FC270F2795889400C0BD
:100FC000002C1BB9D6FC270F00C0002C0BB900C0A9
:100FD00000C041FF1BB927958894D7FC270F00C09C
:100FE000002C1BB92795889400C0002C0BB900C0B9
:100FF00000C040FF1BB9472FD110422F319500C0D0
:10100000002C1BB93A0D00C000C00BB900C000C0D5
:1010100047FF1BB972812227889400C0002C1BB99E
:101020007111780F00C0002C0BB900C000C046FF42
:101030001BB908F47FEF8195889400C0002C1BB980
:10104000F0FC270F00C0002C0BB900C000C045FF0A
:101050001BB927958894F1FC270F00C0002C1BB901
:101060002795889400C0002C0BB900C000C044FF35
:101070001BB9F2FC270F2795889400C0002C1BB9E0
:10108000F3FC270F00C0002C0BB900C000C043FFC9
:101090001BB927958894F4FC270F00C0002C1BB9BE
:1010A0002795889400C0002C0BB900C000C042FFF7
:1010B0001BB9F5FC270F2795889400C0002C1BB99D
:1010C000F6FC270F00C0002C0BB900C000C041FF88
:1010D0001BB927958894F7FC270F00C0002C1BB97B
:1010E0002795889400C0002C0BB900C000C040FFB9
:1010F0001BB9472FF110422F8C0D00C0002C1BB9DB
:10110000119709F086CE20EE31E0D3010E9426210E
:10111000DC01CB01F4E0B695A79597958795FA95F4
:10112000D1F730E020E0B901EAE96E9E060C611DBE
:101130007E9E600D711D1124670D711D860F971F16
:10114000A11DB11D893E43E09407A105B10508F436
:1011500034C0885E9340A109B10942E0B695A795D5
:10116000979587954A95D1F747E0849F080E211DF2
:10117000949F200D311D1124290F311D6091F8011C
:1011800070E0860F971F820F931F40910E035091BE
:101190000F036091100370911103292F3327420F21
:1011A000531F611D711D40930E0350930F036093F5
:1011B0001003709311038093F8017894C201DF91BA
:1011C000CF911F910F91FF90EF90DF90CF90AF9054
:1011D0009F908F907F906F905F904F900C943E0403
:1011E000549A08954F925F926F927F928F929F923E
:1011F000AF92CF92DF92EF92FF920F931F93CF9314
:10120000DF93EB010F962C010E944804F894E881CB
:10121000F9810BB100621BB11F7D1BB9CB8488859E
:101220004C2D481B842F48879F846A807B80FE84D6
:10123000EC84DD84F394E394D3949E813F8189848C
:10124000AA844281D30120E0622F722F7281442749
:1012500088947111780F08F47FEF81958894F0FCE1
:10126000470F47958894F1FC470F47958894F2FC07
:10127000470F47958894F3FC470F47958894F4FCF3
:10128000470F47958894F5FC470F47958894F6FCDF
:10129000470F47958894F7FC470F47958894272F69
:1012A000F110242F8C0D422F002C0BB900C000C070
:1012B00047FF1BB970812227889400C0002C1BB9FE
:1012C0007111790F00C0002C0BB900C000C046FF9F
:1012D0001BB908F47FEF9195889400C0002C1BB9CE
:1012E000E0FC270F00C0002C0BB900C000C045FF78
:1012F0001BB927958894E1FC270F00C0002C1BB96F
:101300002795889400C0002C0BB900C000C044FF92
:101310001BB9E2FC270F2795889400C0002C1BB94D
:10132000E3FC270F00C0002C0BB900C000C043FF36
:101330001BB927958894E4FC270F00C0002C1BB92B
:101340002795889400C0002C0BB900C000C042FF54
:101350001BB9E5FC270F2795889400C0002C1BB90A
:10136000E6FC270F00C0002C0BB900C000C041FFF5
:101370001BB927958894E7FC270F00C0002C1BB9E8
:101380002795889400C0002C0BB900C000C040FF16
:101390001BB9472FE110422F980D00C0002C1BB93C
:1013A00000C000C0002C0BB900C000C047FF1BB933
:1013B00071812227889400C0002C1BB97111730F12
:1013C00000C0002C0BB900C000C046FF1BB908F4D8
:1013D0007FEFE90DF11D00C0002C1BB9D0FC270FD9
:1013E00000C0002C0BB900C000C045FF1BB92795F9
:1013F0008894D1FC270F00C0002C1BB92795889436
:1014000000C0002C0BB900C000C044FF1BB9D2FCC7
:10141000270F2795889400C0002C1BB9D3FC270FF9
:1014200000C0002C0BB900C000C043FF1BB92795BA
:101430008894D4FC270F00C0002C1BB927958894F2
:1014400000C0002C0BB900C000C042FF1BB9D5FC86
:10145000270F2795889400C0002C1BB9D6FC270FB6
:1014600000C0002C0BB900C000C041FF1BB927957C
:101470008894D7FC270F00C0002C1BB927958894AF
:1014800000C0002C0BB900C000C040FF1BB9472FA3
:10149000D110422F319500C0002C1BB93A0D00C06D
:1014A00000C00BB900C000C047FF1BB972812227E2
:1014B000889400C0002C1BB97111780F00C0002C5B
:1014C0000BB900C000C046FF1BB908F47FEF81953F
:1014D000889400C0002C1BB9F0FC270F00C0002C22
:1014E0000BB900C000C045FF1BB927958894F1FCDB
:1014F000270F00C0002C1BB92795889400C0002C32
:101500000BB900C000C044FF1BB9F2FC270F2795A0
:10151000889400C0002C1BB9F3FC270F00C0002CDE
:101520000BB900C000C043FF1BB927958894F4FC99
:10153000270F00C0002C1BB92795889400C0002CF1
:101540000BB900C000C042FF1BB9F5FC270F27955F
:10155000889400C0002C1BB9F6FC270F00C0002C9B
:101560000BB900C000C041FF1BB927958894F7FC58
:10157000270F00C0002C1BB92795889400C0002CB1
:101580000BB900C000C040FF1BB9472FF110422F1C
:101590008C0D00C0002C1BB9119709F086CE20EEEF
:1015A00031E0D3010E942621DC01CB01F4E0B695A5
:1015B000A79597958795FA95D1F730E020E0B90186
:1015C000EAE96E9E060C611D7E9E600D711D112460
:1015D000670D711D860F971FA11DB11D893E43E048
:1015E0009407A105B10508F434C0885E9340A109B1
:1015F000B10942E0B695A795979587954A95D1F799
:1016000047E0849F080E211D949F200D311D112459
:10161000290F311D6091F80170E0860F971F820F2E
:10162000931F40910E0350910F036091100370912E
:101630001103292F3327420F531F611D711D409342
:101640000E0350930F036093100370931103809364
:10165000F8017894C201DF91CF911F910F91FF9013
:10166000EF90DF90CF90AF909F908F907F906F9092
:101670005F904F900C943E04559A08954F925F925C
:101680006F927F928F929F92AF92CF92DF92EF9262
:10169000FF920F931F93CF93DF93EB010F962C01D3
:1016A0000E944804F894E881F9810BB100641BB1F1
:1016B0001F7B1BB9CB8488854C2D481B842F488702
:1016C0009F846A807B80FE84EC84DD84F394E394C1
:1016D000D3949E813F818984AA844281D30120E0F2
:1016E000622F722F7281442788947111780F08F449
:1016F0007FEF81958894F0FC470F47958894F1FC23
:10170000470F47958894F2FC470F47958894F3FC60
:10171000470F47958894F4FC470F47958894F5FC4C
:10172000470F47958894F6FC470F47958894F7FC38
:10173000470F47958894272FF110242F8C0D422FA7
:10174000002C0BB900C000C047FF1BB970812227D5
:10175000889400C0002C1BB97111790F00C0002CB7
:101760000BB900C000C046FF1BB908F47FEF91958C
:10177000889400C0002C1BB9E0FC270F00C0002C8F
:101780000BB900C000C045FF1BB927958894E1FC48
:10179000270F00C0002C1BB92795889400C0002C8F
:1017A0000BB900C000C044FF1BB9E2FC270F27950E
:1017B000889400C0002C1BB9E3FC270F00C0002C4C
:1017C0000BB900C000C043FF1BB927958894E4FC07
:1017D000270F00C0002C1BB92795889400C0002C4F
:1017E0000BB900C000C042FF1BB9E5FC270F2795CD
:1017F000889400C0002C1BB9E6FC270F00C0002C09
:101800000BB900C000C041FF1BB927958894E7FCC5
:10181000270F00C0002C1BB92795889400C0002C0E
:101820000BB900C000C040FF1BB9472FE110422F89
:10183000980D00C0002C1BB900C000C0002C0BB9D3
:1018400000C000C047FF1BB971812227889400C0E7
:10185000002C1BB97111730F00C0002C0BB900C014
:1018600000C046FF1BB908F47FEFE90DF11D00C071
:10187000002C1BB9D0FC270F00C0002C0BB900C0F6
:1018800000C045FF1BB927958894D1FC270F00C0E5
:10189000002C1BB92795889400C0002C0BB900C000
:1018A00000C044FF1BB9D2FC270F2795889400C0C5
:1018B000002C1BB9D3FC270F00C0002C0BB900C0B3
:1018C00000C043FF1BB927958894D4FC270F00C0A4
:1018D000002C1BB92795889400C0002C0BB900C0C0
:1018E00000C042FF1BB9D5FC270F2795889400C084
:1018F000002C1BB9D6FC270F00C0002C0BB900C070
:1019000000C041FF1BB927958894D7FC270F00C062
:10191000002C1BB92795889400C0002C0BB900C07F
:1019200000C040FF1BB9472FD110422F319500C096
:10193000002C1BB93A0D00C000C00BB900C000C09C
:1019400047FF1BB972812227889400C0002C1BB965
:101950007111780F00C0002C0BB900C000C046FF09
:101960001BB908F47FEF8195889400C0002C1BB947
:10197000F0FC270F00C0002C0BB900C000C045FFD1
:101980001BB927958894F1FC270F00C0002C1BB9C8
:101990002795889400C0002C0BB900C000C044FFFC
:1019A0001BB9F2FC270F2795889400C0002C1BB9A7
:1019B000F3FC270F00C0002C0BB900C000C043FF90
:1019C0001BB927958894F4FC270F00C0002C1BB985
:1019D0002795889400C0002C0BB900C000C042FFBE
:1019E0001BB9F5FC270F2795889400C0002C1BB964
:1019F000F6FC270F00C0002C0BB900C000C041FF4F
:101A00001BB927958894F7FC270F00C0002C1BB941
:101A10002795889400C0002C0BB900C000C040FF7F
:101A20001BB9472FF110422F8C0D00C0002C1BB9A1
:101A3000119709F086CE20EE31E0D3010E942621D5
:101A4000DC01CB01F4E0B695A79597958795FA95BB
:101A5000D1F730E020E0B901EAE96E9E060C611D85
:101A60007E9E600D711D1124670D711D860F971FDD
:101A7000A11DB11D893E43E09407A105B10508F4FD
:101A800034C0885E9340A109B10942E0B695A7959C
:101A9000979587954A95D1F747E0849F080E211DB9
:101AA000949F200D311D1124290F311D6091F801E3
:101AB00070E0860F971F820F931F40910E03509185
:101AC0000F036091100370911103292F3327420FE8
:101AD000531F611D711D40930E0350930F036093BC
:101AE0001003709311038093F8017894C201DF9181
:101AF000CF911F910F91FF90EF90DF90CF90AF901B
:101B00009F908F907F906F905F904F900C943E04C9
:101B1000569A08954F925F926F927F928F929F9202
:101B2000AF92CF92DF92EF92FF920F931F93CF93DA
:101B3000DF93EB010F962C010E944804F894E88192
:101B4000F9810BB100681BB11F771BB9CB84888565
:101B50004C2D481B842F48879F846A807B80FE849D
:101B6000EC84DD84F394E394D3949E813F81898453
:101B7000AA844281D30120E0622F722F7281442710
:101B800088947111780F08F47FEF81958894F0FCA8
:101B9000470F47958894F1FC470F47958894F2FCCE
:101BA000470F47958894F3FC470F47958894F4FCBA
:101BB000470F47958894F5FC470F47958894F6FCA6
:101BC000470F47958894F7FC470F47958894272F30
:101BD000F110242F8C0D422F002C0BB900C000C037
:101BE00047FF1BB970812227889400C0002C1BB9C5
:101BF0007111790F00C0002C0BB900C000C046FF66
:101C00001BB908F47FEF9195889400C0002C1BB994
:101C1000E0FC270F00C0002C0BB900C000C045FF3E
:101C20001BB927958894E1FC270F00C0002C1BB935
:101C30002795889400C0002C0BB900C000C044FF59
:101C40001BB9E2FC270F2795889400C0002C1BB914
:101C5000E3FC270F00C0002C0BB900C000C043FFFD
:101C60001BB927958894E4FC270F00C0002C1BB9F2
:101C70002795889400C0002C0BB900C000C042FF1B
:101C80001BB9E5FC270F2795889400C0002C1BB9D1
:101C9000E6FC270F00C0002C0BB900C000C041FFBC
:101CA0001BB927958894E7FC270F00C0002C1BB9AF
:101CB0002795889400C0002C0BB900C000C040FFDD
:101CC0001BB9472FE110422F980D00C0002C1BB903
:101CD00000C000C0002C0BB900C000C047FF1BB9FA
:101CE00071812227889400C0002C1BB97111730FD9
:101CF00000C0002C0BB900C000C046FF1BB908F49F
:101D00007FEFE90DF11D00C0002C1BB9D0FC270F9F
:101D100000C0002C0BB900C000C045FF1BB92795BF
:101D20008894D1FC270F00C0002C1BB927958894FC
:101D300000C0002C0BB900C000C044FF1BB9D2FC8E
:101D4000270F2795889400C0002C1BB9D3FC270FC0
:101D500000C0002C0BB900C000C043FF1BB9279581
:101D60008894D4FC270F00C0002C1BB927958894B9
:101D700000C0002C0BB900C000C042FF1BB9D5FC4D
:101D8000270F2795889400C0002C1BB9D6FC270F7D
:101D900000C0002C0BB900C000C041FF1BB9279543
:101DA0008894D7FC270F00C0002C1BB92795889476
:101DB00000C0002C0BB900C000C040FF1BB9472F6A
:101DC000D110422F319500C0002C1BB93A0D00C034
:101DD00000C00BB900C000C047FF1BB972812227A9
:101DE000889400C0002C1BB97111780F00C0002C22
:101DF0000BB900C000C046FF1BB908F47FEF819506
:101E0000889400C0002C1BB9F0FC270F00C0002CE8
:101E10000BB900C000C045FF1BB927958894F1FCA1
:101E2000270F00C0002C1BB92795889400C0002CF8
:101E30000BB900C000C044FF1BB9F2FC270F279567
:101E4000889400C0002C1BB9F3FC270F00C0002CA5
:101E50000BB900C000C043FF1BB927958894F4FC60
:101E6000270F00C0002C1BB92795889400C0002CB8
:101E70000BB900C000C042FF1BB9F5FC270F279526
:101E8000889400C0002C1BB9F6FC270F00C0002C62
:101E90000BB900C000C041FF1BB927958894F7FC1F
:101EA000270F00C0002C1BB92795889400C0002C78
:101EB0000BB900C000C040FF1BB9472FF110422FE3
:101EC0008C0D00C0002C1BB9119709F086CE20EEB6
:101ED00031E0D3010E942621DC01CB01F4E0B6956C
:101EE000A79597958795FA95D1F730E020E0B9014D
:101EF000EAE96E9E060C611D7E9E600D711D112427
:101F0000670D711D860F971FA11DB11D893E43E00E
:101F10009407A105B10508F434C0885E9340A10977
:101F2000B10942E0B695A795979587954A95D1F75F
:101F300047E0849F080E211D949F200D311D112420
:101F4000290F311D6091F80170E0860F971F820FF5
:101F5000931F40910E0350910F03609110037091F5
:101F60001103292F3327420F531F611D711D409309
:101F70000E0350930F03609310037093110380932B
:101F8000F8017894C201DF91CF911F910F91FF90DA
:101F9000EF90DF90CF90AF909F908F907F906F9059
:101FA0005F904F900C943E04579A08954F925F9221
:101FB0006F927F928F929F92AF92CF92DF92EF9229
:101FC000FF920F931F93CF93DF93EB010F962C019A
:101FD0000E944804F894E881F98105B1016015B1C7
:101FE0001E7F15B9CB8488854C2D481B842F4887CC
:101FF0009F846A807B80FE84EC84DD84F394E39488
:10200000D3949E813F818984AA844281D30120E0B8
:10201000622F722F7281442788947111780F08F40F
:102020007FEF81958894F0FC470F47958894F1FCE9
:10203000470F47958894F2FC470F47958894F3FC27
:10204000470F47958894F4FC470F47958894F5FC13
:10205000470F47958894F6FC470F47958894F7FCFF
:10206000470F47958894272FF110242F8C0D422F6E
:10207000002C05B900C000C047FF15B970812227A8
:10208000889400C0002C15B97111790F00C0002C84
:1020900005B900C000C046FF15B908F47FEF91955F
:1020A000889400C0002C15B9E0FC270F00C0002C5C
:1020B00005B900C000C045FF15B927958894E1FC1B
:1020C000270F00C0002C15B92795889400C0002C5C
:1020D00005B900C000C044FF15B9E2FC270F2795E1
:1020E000889400C0002C15B9E3FC270F00C0002C19
:1020F00005B900C000C043FF15B927958894E4FCDA
:10210000270F00C0002C15B92795889400C0002C1B
:1021100005B900C000C042FF15B9E5FC270F27959F
:10212000889400C0002C15B9E6FC270F00C0002CD5
:1021300005B900C000C041FF15B927958894E7FC98
:10214000270F00C0002C15B92795889400C0002CDB
:1021500005B900C000C040FF15B9472FE110422F5C
:10216000980D00C0002C15B900C000C0002C05B9A6
:1021700000C000C047FF15B971812227889400C0B4
:10218000002C15B97111730F00C0002C05B900C0E7
:1021900000C046FF15B908F47FEFE90DF11D00C03E
:1021A000002C15B9D0FC270F00C0002C05B900C0C9
:1021B00000C045FF15B927958894D1FC270F00C0B2
:1021C000002C15B92795889400C0002C05B900C0D3
:1021D00000C044FF15B9D2FC270F2795889400C092
:1021E000002C15B9D3FC270F00C0002C05B900C086
:1021F00000C043FF15B927958894D4FC270F00C071
:10220000002C15B92795889400C0002C05B900C092
:1022100000C042FF15B9D5FC270F2795889400C050
:10222000002C15B9D6FC270F00C0002C05B900C042
:1022300000C041FF15B927958894D7FC270F00C02F
:10224000002C15B92795889400C0002C05B900C052
:1022500000C040FF15B9472FD110422F319500C063
:10226000002C15B93A0D00C000C005B900C000C06F
:1022700047FF15B972812227889400C0002C15B938
:102280007111780F00C0002C05B900C000C046FFD6
:1022900015B908F47FEF8195889400C0002C15B91A
:1022A000F0FC270F00C0002C05B900C000C045FF9E
:1022B00015B927958894F1FC270F00C0002C15B99B
:1022C0002795889400C0002C05B900C000C044FFC9
:1022D00015B9F2FC270F2795889400C0002C15B97A
:1022E000F3FC270F00C0002C05B900C000C043FF5D
:1022F00015B927958894F4FC270F00C0002C15B958
:102300002795889400C0002C05B900C000C042FF8A
:1023100015B9F5FC270F2795889400C0002C15B936
:10232000F6FC270F00C0002C05B900C000C041FF1B
:1023300015B927958894F7FC270F00C0002C15B914
:102340002795889400C0002C05B900C000C040FF4C
:1023500015B9472FF110422F8C0D00C0002C15B974
:10236000119709F086CE20EE31E0D3010E9426219C
:10237000DC01CB01F4E0B695A79597958795FA9582
:10238000D1F730E020E0B901EAE96E9E060C611D4C
:102390007E9E600D711D1124670D711D860F971FA4
:1023A000A11DB11D893E43E09407A105B10508F4C4
:1023B00034C0885E9340A109B10942E0B695A79563
:1023C000979587954A95D1F747E0849F080E211D80
:1023D000949F200D311D1124290F311D6091F801AA
:1023E00070E0860F971F820F931F40910E0350914C
:1023F0000F036091100370911103292F3327420FAF
:10240000531F611D711D40930E0350930F03609382
:102410001003709311038093F8017894C201DF9147
:10242000CF911F910F91FF90EF90DF90CF90AF90E1
:102430009F908F907F906F905F904F900C943E0490
:10244000209A08954F925F926F927F928F929F92FF
:10245000AF92CF92DF92EF92FF920F931F93CF93A1
:10246000DF93EB010F962C010E944804F894E88159
:10247000F98105B1026015B11D7F15B9CB8488853E
:102480004C2D481B842F48879F846A807B80FE8464
:10249000EC84DD84F394E394D3949E813F8189841A
:1024A000AA844281D30120E0622F722F72814427D7
:1024B00088947111780F08F47FEF81958894F0FC6F
:1024C000470F47958894F1FC470F47958894F2FC95
:1024D000470F47958894F3FC470F47958894F4FC81
:1024E000470F47958894F5FC470F47958894F6FC6D
:1024F000470F47958894F7FC470F47958894272FF7
:10250000F110242F8C0D422F002C05B900C000C003
:1025100047FF15B970812227889400C0002C15B997
:102520007111790F00C0002C05B900C000C046FF32
:1025300015B908F47FEF9195889400C0002C15B967
:10254000E0FC270F00C0002C05B900C000C045FF0B
:1025500015B927958894E1FC270F00C0002C15B908
:102560002795889400C0002C05B900C000C044FF26
:1025700015B9E2FC270F2795889400C0002C15B9E7
:10258000E3FC270F00C0002C05B900C000C043FFCA
:1025900015B927958894E4FC270F00C0002C15B9C5
:1025A0002795889400C0002C05B900C000C042FFE8
:1025B00015B9E5FC270F2795889400C0002C15B9A4
:1025C000E6FC270F00C0002C05B900C000C041FF89
:1025D00015B927958894E7FC270F00C0002C15B982
:1025E0002795889400C0002C05B900C000C040FFAA
:1025F00015B9472FE110422F980D00C0002C15B9D6
:1026000000C000C0002C05B900C000C047FF15B9CC
:1026100071812227889400C0002C15B97111730FA5
:1026200000C0002C05B900C000C046FF15B908F471
:102630007FEFE90DF11D00C0002C15B9D0FC270F6C
:1026400000C0002C05B900C000C045FF15B9279592
:102650008894D1FC270F00C0002C15B927958894C9
:1026600000C0002C05B900C000C044FF15B9D2FC61
:10267000270F2795889400C0002C15B9D3FC270F8D
:1026800000C0002C05B900C000C043FF15B9279554
:102690008894D4FC270F00C0002C15B92795889486
:1026A00000C0002C05B900C000C042FF15B9D5FC20
:1026B000270F2795889400C0002C15B9D6FC270F4A
:1026C00000C0002C05B900C000C041FF15B9279516
:1026D0008894D7FC270F00C0002C15B92795889443
:1026E00000C0002C05B900C000C040FF15B9472F3D
:1026F000D110422F319500C0002C15B93A0D00C001
:1027000000C005B900C000C047FF15B9728122277B
:10271000889400C0002C15B97111780F00C0002CEE
:1027200005B900C000C046FF15B908F47FEF8195D8
:10273000889400C0002C15B9F0FC270F00C0002CB5
:1027400005B900C000C045FF15B927958894F1FC74
:10275000270F00C0002C15B92795889400C0002CC5
:1027600005B900C000C044FF15B9F2FC270F27953A
:10277000889400C0002C15B9F3FC270F00C0002C72
:1027800005B900C000C043FF15B927958894F4FC33
:10279000270F00C0002C15B92795889400C0002C85
:1027A00005B900C000C042FF15B9F5FC270F2795F9
:1027B000889400C0002C15B9F6FC270F00C0002C2F
:1027C00005B900C000C041FF15B927958894F7FCF2
:1027D000270F00C0002C15B92795889400C0002C45
:1027E00005B900C000C040FF15B9472FF110422FB6
:1027F0008C0D00C0002C15B9119709F086CE20EE83
:1028000031E0D3010E942621DC01CB01F4E0B69532
:10281000A79597958795FA95D1F730E020E0B90113
:10282000EAE96E9E060C611D7E9E600D711D1124ED
:10283000670D711D860F971FA11DB11D893E43E0D5
:102840009407A105B10508F434C0885E9340A1093E
:10285000B10942E0B695A795979587954A95D1F726
:1028600047E0849F080E211D949F200D311D1124E7
:10287000290F311D6091F80170E0860F971F820FBC
:10288000931F40910E0350910F03609110037091BC
:102890001103292F3327420F531F611D711D4093D0
:1028A0000E0350930F0360931003709311038093F2
:1028B000F8017894C201DF91CF911F910F91FF90A1
:1028C000EF90DF90CF90AF909F908F907F906F9020
:1028D0005F904F900C943E04219A08954F925F921E
:1028E0006F927F928F929F92AF92CF92DF92EF92F0
:1028F000FF920F931F93CF93DF93EB010F962C0161
:102900000E944804F894E881F98105B1046015B18A
:102910001B7F15B9CB8488854C2D481B842F488795
:102920009F846A807B80FE84EC84DD84F394E3944E
:10293000D3949E813F818984AA844281D30120E07F
:10294000622F722F7281442788947111780F08F4D6
:102950007FEF81958894F0FC470F47958894F1FCB0
:10296000470F47958894F2FC470F47958894F3FCEE
:10297000470F47958894F4FC470F47958894F5FCDA
:10298000470F47958894F6FC470F47958894F7FCC6
:10299000470F47958894272FF110242F8C0D422F35
:1029A000002C05B900C000C047FF15B9708122276F
:1029B000889400C0002C15B97111790F00C0002C4B
:1029C00005B900C000C046FF15B908F47FEF919526
:1029D000889400C0002C15B9E0FC270F00C0002C23
:1029E00005B900C000C045FF15B927958894E1FCE2
:1029F000270F00C0002C15B92795889400C0002C23
:102A000005B900C000C044FF15B9E2FC270F2795A7
:102A1000889400C0002C15B9E3FC270F00C0002CDF
:102A200005B900C000C043FF15B927958894E4FCA0
:102A3000270F00C0002C15B92795889400C0002CE2
:102A400005B900C000C042FF15B9E5FC270F279566
:102A5000889400C0002C15B9E6FC270F00C0002C9C
:102A600005B900C000C041FF15B927958894E7FC5F
:102A7000270F00C0002C15B92795889400C0002CA2
:102A800005B900C000C040FF15B9472FE110422F23
:102A9000980D00C0002C15B900C000C0002C05B96D
:102AA00000C000C047FF15B971812227889400C07B
:102AB000002C15B97111730F00C0002C05B900C0AE
:102AC00000C046FF15B908F47FEFE90DF11D00C005
:102AD000002C15B9D0FC270F00C0002C05B900C090
:102AE00000C045FF15B927958894D1FC270F00C079
:102AF000002C15B92795889400C0002C05B900C09A
:102B000000C044FF15B9D2FC270F2795889400C058
:102B1000002C15B9D3FC270F00C0002C05B900C04C
:102B200000C043FF15B927958894D4FC270F00C037
:102B3000002C15B92795889400C0002C05B900C059
:102B400000C042FF15B9D5FC270F2795889400C017
:102B5000002C15B9D6FC270F00C0002C05B900C009
:102B600000C041FF15B927958894D7FC270F00C0F6
:102B7000002C15B92795889400C0002C05B900C019
:102B800000C040FF15B9472FD110422F319500C02A
:102B9000002C15B93A0D00C000C005B900C000C036
:102BA00047FF15B972812227889400C0002C15B9FF
:102BB0007111780F00C0002C05B900C000C046FF9D
:102BC00015B908F47FEF8195889400C0002C15B9E1
:102BD000F0FC270F00C0002C05B900C000C045FF65
:102BE00015B927958894F1FC270F00C0002C15B962
:102BF0002795889400C0002C05B900C000C044FF90
:102C000015B9F2FC270F2795889400C0002C15B940
:102C1000F3FC270F00C0002C05B900C000C043FF23
:102C200015B927958894F4FC270F00C0002C15B91E
:102C30002795889400C0002C05B900C000C042FF51
:102C400015B9F5FC270F2795889400C0002C15B9FD
:102C5000F6FC270F00C0002C05B900C000C041FFE2
:102C600015B927958894F7FC270F00C0002C15B9DB
:102C70002795889400C0002C05B900C000C040FF13
:102C800015B9472FF110422F8C0D00C0002C15B93B
:102C9000119709F086CE20EE31E0D3010E94262163
:102CA000DC01CB01F4E0B695A79597958795FA9549
:102CB000D1F730E020E0B901EAE96E9E060C611D13
:102CC0007E9E600D711D1124670D711D860F971F6B
:102CD000A11DB11D893E43E09407A105B10508F48B
:102CE00034C0885E9340A109B10942E0B695A7952A
:102CF000979587954A95D1F747E0849F080E211D47
:102D0000949F200D311D1124290F311D6091F80170
:102D100070E0860F971F820F931F40910E03509112
:102D20000F036091100370911103292F3327420F75
:102D3000531F611D711D40930E0350930F03609349
:102D40001003709311038093F8017894C201DF910E
:102D5000CF911F910F91FF90EF90DF90CF90AF90A8
:102D60009F908F907F906F905F904F900C943E0457
:102D7000229A08950F931F93CF93DF93CDB7DEB7B9
:102D800062970FB6F894DEBF0FBECDBF8C01F9017C
:102D9000DC011C968C917A8369835C834B835E8310
:102DA0004D8390819D8791819E8792819F878130FD
:102DB000F1F4CE0101960E94010483E0888B1A8A07
:102DC000198AD801ED91FC910484F585E02DBE01AE
:102DD0006F5F7F4FC801099562960FB6F894DEBF0A
:102DE0000FBECDBFDF91CF911F910F9108951C862B
:102DF0001B861A86198618861F82DFCF0F931F93B2
:102E0000CF93DF93CDB7DEB762970FB6F894DEBFEE
:102E10000FBECDBF8C01F901DC011C968C917A8329
:102E200069835C834B835E834D8390819D87918111
:102E30009E8792819F878130E9F4CE0101960E949E
:102E40000104188A1A8A198AD801ED91FC91048428
:102E5000F585E02DBE016F5F7F4FC8010995629631
:102E60000FB6F894DEBF0FBECDBFDF91CF911F919B
:102E70000F9108951C861B861A86198618861F8254
:102E8000E0CFFC0188E091E091838083138212827D
:102E90008FEF86838783808781878287838781E01E
:102EA0008487168615861582148280911803909166
:102EB0001903892B21F4F0931903E0931803A091CF
:102EC000F601B091F701109721F01596FC93EE935F
:102ED0001497F093F701E093F60188E191E0918374
:102EE0008083089590E080E00895FC0185859685B3
:102EF0000895CF93DF9300D000D000D0CDB7DEB7D8
:102F0000AB011C821D821E82DC01ED91FC910190BF
:102F1000F081E02D19821A821B829E012F5F3F4FA4
:102F2000BE016C5F7F4F099526960FB6F894DEBF01
:102F30000FBECDBFDF91CF91089542E050E062EE29
:102F400071E08DE097E00C94EA01CF93DF93682F56
:102F50008DE097E00E948A02EC010E949D178C0F81
:102F60009D1FDF91CF9108950F931F93CF93DF9310
:102F70008C01D0E0C0E0F801EC0FFD1F64916623E6
:102F800041F08DE097E00E948A02892B11F0219692
:102F9000F2CF0E949D178C0F9D1FDF91CF911F9143
:102FA0000F9108950E9441211F920F920FB60F9228
:102FB00011242F933F934F935F936F937F938F933E
:102FC0009F93AF93BF93EF93FF938DE097E00E94A1
:102FD0006802FF91EF91BF91AF919F918F917F9187
:102FE0006F915F914F913F912F910F900FBE0F9076
:102FF0001F9018951F920F920FB60F9211242F93C6
:103000008F939F93EF93FF93E0911D07F0911E071D
:103010008081E0912307F091240782FD1BC09081FD
:10302000809126078F5F8F7320912707821741F0C9
:10303000E0912607F0E0E35FF84F958F8093260735
:10304000FF91EF919F918F912F910F900FBE0F9055
:103050001F9018958081F4CF1F920F920FB60F9298
:1030600011242F933F938F939F93AF93BF9380919E
:103070000E0390910F03A0911003B09111033091B2
:103080003D0223E0230F2D3758F50196A11DB11DF8
:1030900020933D0280930E0390930F03A09310039F
:1030A000B093110380913E0290913F02A0914002A3
:1030B000B09141020196A11DB11D80933E029093F3
:1030C0003F02A0934002B0934102BF91AF919F9104
:1030D0008F913F912F910F900FBE0F901F901895D9
:1030E00026E8230F0296A11DB11DD2CF1F920F9289
:1030F0000FB60F9211242F933F934F935F936F93CB
:103100007F938F939F93AF93BF93EF93FF938091A0
:10311000B900887F803609F44AC0F0F5883209F496
:10312000A7C018F5803109F49BC0B8F4882309F4CE
:10313000F9C0883009F494C0FF91EF91BF91AF912D
:103140009F918F917F916F915F914F913F912F91BF
:103150000F900FBE0F901F901895883109F488C00A
:10316000803251F78093E60614C0803409F49DC084
:1031700040F48033B9F38833F9F68093E60685ECA2
:10318000B0C0803509F485C0883509F496C088340C
:1031900099F60E944E03D0CF883909F48CC038F5D7
:1031A000883729F050F4883611F0803729F683E00B
:1031B0008093E80610923C0257C0883809F47BC01F
:1031C000803919F0803809F0B7CF80913C02803205
:1031D00008F071C0E0913C0281E08E0F80933C02C8
:1031E0008091BB00F0E0E45EFD4F80833DC0803BFA
:1031F00039F0E0F4803A09F479C0883A09F09CCFBC
:1032000084E08093E80610921B0210921A02E0916B
:103210004402F0914502099580911A0281110FC074
:1032200081E080931A021092FA0109C0803C09F4EF
:10323000A6CF883C09F4A3CF883B09F07DCFE0916D
:103240001B0281E08E0F80931B02F0E0E650FE4FE0
:1032500080818093BB0090911B0280911A0229C04B
:103260008091C3068093BB0085EC8093BC0064CF43
:103270009091E5068091E406981758F5E091E506EF
:1032800081E08E0F8093E506F0E0EC53F94F8081EA
:10329000E9CFE091E50681E08E0F8093E50680910D
:1032A000BB00F0E0EC53F94F80839091E5068091EC
:1032B000E4069817C8F285E8D8CFE091E50681E0EA
:1032C0008E0F8093E5068091BB00F0E0EC53F94F40
:1032D00080838091E70681115CCF81E08093C206F4
:1032E00084EA8093BC001092E80626CF85EC809398
:1032F000BC001092E80680913C02803230F4E091EC
:103300003C02F0E0E45EFD4F108260913C0270E010
:10331000E0914202F09143028CE192E00995109213
:103320003C020ACF1092E60634CFEDE0F7E01382BC
:10333000128288EE93E0A0E0B0E084839583A683B8
:10334000B78322EC31E03183208325EC30E03587F0
:10335000248724EC30E03787268720EC30E0318B5F
:10336000208B21EC30E0338B228B22EC30E0358B4C
:10337000248B26EC30E0378B268B118E128E138E29
:10338000148EEAEAF7E02FEF20831282118214866E
:1033900013864FEF5FEFBA014783508761877287CB
:1033A000E7EBF7E01382128284839583A683B783C9
:1033B00084ED91E091838083E3ECF7E01382128245
:1033C00083E290E0918380830895CF93DF9300D0D0
:1033D00000D01F92CDB7DEB7789484B5826084BDEB
:1033E00084B5816084BD85B5826085BD85B5816009
:1033F00085BD80916E00816080936E001092810087
:103400008091810082608093810080918100816041
:103410008093810080918000816080938000809102
:10342000B10084608093B1008091B000816080938E
:10343000B00080917A00846080937A0080917A0055
:10344000826080937A0080917A00816080937A0014
:1034500080917A00806880937A001092C100E09198
:103460001D07F0911E0782E08083E0911D07F09117
:103470001E071082E0911907F0911A071082E0915F
:103480001B07F0911C0780E1808310922507E091D3
:103490002107F091220786E08083E0911F07F091D9
:1034A0002007808180618083E0911F07F0912007D1
:1034B000808188608083E0911F07F09120078081E0
:1034C00080688083E0911F07F091200780818F7DC5
:1034D00080838CE08093B80010929E0610929F0625
:1034E0001092EA0610920C071092E80611E0109371
:1034F000E7061092C20682E10E949A0183E10E94CF
:103500009A018091B9008E7F8093B9008091B900B3
:103510008D7F8093B90088E48093B80085E4809320
:10352000BC0088EE91E0909345028093440289EEBE
:1035300091E090934302809342028091C3071093DD
:10354000E90680930B071092EA0610920C0760912F
:10355000C50787EB97E00E94CF0381E00E94FC0043
:10356000182F6AE070E080E090E00E941C031230A7
:1035700009F469C150F4112391F0113009F45FC1CD
:1035800088E690E00E94B41710C0133009F45FC1C0
:103590001430B1F788E890E00E94B417F1CF83E1CE
:1035A00090E09093C6078093C50780E480937C00E9
:1035B00080917A00806480937A0080917A0086FD01
:1035C000FCCF8091780060917900762F682F072ECC
:1035D000000C880B990B611571058105910511F09F
:1035E0000E94611F80915702811111C086E492E010
:1035F0000E94411710925602109255028AE291E001
:10360000909347028093460281E0809357026EE1D7
:1036100073E086E492E00E9459018091700281116A
:1036200011C08FE592E00E94411710926F02109234
:103630006E028CE391E09093600280935F0281E0E0
:10364000809370026AE873E08FE592E00E9459016E
:1036500080918902811111C088E792E00E94411790
:1036600010928802109287028EE491E09093790282
:103670008093780281E08093890266EF73E088E7A7
:1036800092E00E9459018091A202811111C081E94A
:1036900092E00E9441171092A1021092A00280E6CF
:1036A00091E0909392028093910281E08093A20234
:1036B00062E674E081E992E00E9459018091BB02C8
:1036C000811111C08AEA92E00E9441171092BA0259
:1036D0001092B90282E791E09093AB028093AA0224
:1036E00081E08093BB026EEC74E08AEA92E00E9473
:1036F00059018091D402811111C083EC92E00E94A3
:1037000041171092D3021092D20284E891E0909374
:10371000C4028093C30281E08093D4026AE375E01F
:1037200083EC92E00E9459018091ED02811111C059
:103730008CED92E00E9441171092EC021092EB0285
:1037400086E991E09093DD028093DC0281E0809332
:10375000ED0266EA75E08CED92E00E9459018091DD
:103760000603811111C085EF92E00E94411710926B
:1037700005031092040388EA91E09093F602809387
:10378000F50281E08093060362E176E085EF92E046
:103790000E9459018FEF8093AA071092A8061092F9
:1037A000A9061092AA061092AB061092AC061092CF
:1037B000AD061092AE061092AF0688E090E09093AE
:1037C000C1068093C0064FE050E065EE71E08DE0E9
:1037D00097E00E94EA010E949D1788E58093A00669
:1037E0008093A1068093A2068093A3068093A406EB
:1037F0008093A5068093A6068093A70606EB11E0AA
:10380000BEEBEB2EB1E0FB2E87E0882E912CA12C95
:10381000B12C98E0C92ED12C0E94121FA501940151
:103820000E946A1FFB01E056F94F80818835A1F0A4
:10383000CB010196B6010E940C21BC01F3CF8BE0B5
:1038400091E00E94B41786ED90E00E94B41784EADC
:1038500090E00E94B4179ECED8018D918D01808397
:10386000EA16FB06C9F61FEFBB24B39401E0EEE1B4
:10387000F3E05AE8C52E53E0D52E66EFE62E63E05E
:10388000F62E62E674E04EEC54E02AE335E086EA78
:1038900095E0A2E18A2EA6E09A2E1083118312836E
:1038A000D6011C9311961C93119712961C93D70165
:1038B0001C9311961C93119712961C93DB011C9379
:1038C00011961C93119712961C93DA011C93119672
:1038D0001C93119712961C93D9011C9311961C935B
:1038E000119712961C93DC011C9311961C9311974F
:1038F00012961C93D4011C9311961C931197129647
:103900001C933396B3E0CB0ED11CA3E0EA0EF11C5E
:103910006D5F7F4F4D5F5F4F2D5F3F4F0396B3E06D
:103920008B0E911CADE8B3E0AE17BF0709F0B5CF21
:10393000D090AA078091AD079091AE07A091AF07F4
:10394000B091B007892B8A2B8B2BD9F00E94F702FC
:1039500040901A0350901B0360901C0370901D034D
:1039600064197509860997094090AD075090AE0714
:103970006090AF077090B0076415750586059705D0
:10398000C8F20E94F70260931A0370931B0380939E
:103990001C0390931D03E091B507F091B607309793
:1039A00059F04091B1075091B2076091B3077091FF
:1039B000B4078D2D0995D82EE0901803F0901903C7
:1039C0004D2C512C712C612CE114F10409F45DC0D3
:1039D000F701C4848091AB079091AC0784369105C0
:1039E00008F41486D701ED91FC91828193819D8327
:1039F0008C8319821A821B82DD2099F1470196E09F
:103A0000890E911CF0E0E0E0D4012D914D012223BC
:103A100021F11296AC90AA2001F130E050E040E094
:103A20002F5F3F4F4F4F5F4FC301B2010E94FC20F9
:103A30009B01AC018A2D90E0B0E0A0E0BC01CD017B
:103A40006F5F7F4F8F4F9F4F0E94FC20A1E0B0E03F
:103A5000AC0FBD1FAE0FBF1F8C933196E330F10545
:103A600099F6F70145855685628173819E012F5F26
:103A70003F4FC701EC81FD810995D7011C96CC927F
:103A80001C971496ED90FC909FCF80911603909117
:103A900017039C012F5F3F4F3093170320931603AA
:103AA00049970CF445C08FB7F89420910E033091DC
:103AB0000F0340911003509111038FBF80911603A3
:103AC00090911703E8EEF3E08E9FB0018F9F700D89
:103AD0009E9F700D1124072E000C880B990BC0902F
:103AE0001203D0901303E0901403F09015032C19E7
:103AF0003D094E095F090E949C1F3093AC0720933B
:103B0000AB0710921703109216032FB7F894809109
:103B10000E0390910F03A0911003B09111032FBFDA
:103B20008093120390931303A0931403B09315038F
:103B30001092C1061092C00620E7D22E35EEC32E99
:103B400045ECA42EE090C006F090C106F8E0EF1618
:103B5000F1040CF00EC187E08E15B0F00093E90679
:103B6000D0920B071092EA0610920C0761E070E009
:103B70000E2C01C0660F0A94EAF787EB97E00E94CB
:103B8000CF0381E00E94FC006091C5077091C607D9
:103B90006115710591F588E391E00E94B41770E01A
:103BA00060E0F701EE0FFF1FE055F94F718360836E
:103BB000E091C006F091C106DF01AA0FBB1FA0551E
:103BC000B94F8D919C91DF01A855B94F0B9708F023
:103BD000CEC08C918111A6C0BC92E830F10508F0EE
:103BE000A1C0EB50F24E0C9420218E1EA21EA51EE9
:103BF000A81EAB1EAE1EB11EB41E8091C30700935B
:103C0000E90680930B071092EA0610920C0787EBE7
:103C100097E00E94CF0381E00E94FC008091C507DD
:103C20009091C6078032910578F08232910518F0A4
:103C30008332910549F4839709F061C060E170E037
:103C400080E090E00E941C038091E8068111FCCF87
:103C50008091C3070093E8060093E7061093E606F9
:103C60001092E5060093E4060093C3069091C30604
:103C7000880F892B8093C3068091C206813009F09A
:103C800043C01092C2068091C3068093BB0080910E
:103C9000BC0083FDF8CFA092BC008091E806813083
:103CA000E1F38091E50692E0823010F49091E50610
:103CB000A4ECB6E0EEE7F6E080E0891328C01092AD
:103CC0009E0680939F06823031F587EB97E00E9435
:103CD0008F03382E212C87EB97E00E948F038229D7
:103CE0009329BC0190E080E00E946E202AE939E926
:103CF00049E95FE30E94CD1F0E943F2052CF68E751
:103D000070E080E090E09ECFC092BC00C6CF2D91C5
:103D100021938F5FD2CF8FEF9FEFE3CF8091A306E8
:103D20000E94A51769E170E080E090E00E941C030A
:103D30008091C0069091C10601969093C106809330
:103D4000C00600CF8091A406EBCF8091A206E8CFF9
:103D50008091A506E5CF8091A106E2CF8091A606CD
:103D6000DFCF8091A006DCCF8091A706D9CF1C922F
:103D7000D9CFA0E0B0E0AB2B09F479CD0E9454027A
:103D8000882309F471CD0E9400006DCD8F929F921F
:103D9000AF92BF92CF92DF92EF92FF92CF93DF93D9
:103DA000EC01688179818A819B81611571058105AA
:103DB000910521F464E279ED8BE597E02DE133EF95
:103DC00041E050E00E946A1F49015A019B01AC0189
:103DD000A7EAB1E40E94891F6B017C01ACEEB4EF4D
:103DE000A50194010E94971FC60ED71EE81EF91E5A
:103DF000F7FE06C081E0C81AD108E10880E8F80A99
:103E0000C882D982EA82FB82C701B6019F77DF911F
:103E1000CF91FF90EF90DF90CF90BF90AF909F90A9
:103E20008F9008958F929F92AF92BF92CF92DF9220
:103E3000EF92FF9260910001709101018091020167
:103E400090910301611571058105910521F464E2EA
:103E500079ED8BE597E02DE133EF41E050E00E94F2
:103E60006A1F49015A019B01AC01A7EAB1E40E9413
:103E7000891F6B017C01ACEEB4EFA50194010E9497
:103E8000971FC60ED71EE81EF91EF7FE06C081E07A
:103E9000C81AD108E10880E8F80AC0920001D0925F
:103EA0000101E0920201F0920301C701B6019F7780
:103EB000FF90EF90DF90CF90BF90AF909F908F904A
:103EC0000895609300017093010180930201909323
:103ED00003010895052E97FB1EF400940E94811F94
:103EE00057FD07D00E949C1F07FC03D04EF40C9492
:103EF000811F50954095309521953F4F4F4F5F4F13
:103F0000089590958095709561957F4F8F4F9F4F45
:103F100008950E94BE1FA59F900DB49F900DA49F71
:103F2000800D911D11240895B7FF0C94891F0E94E4
:103F3000891F821B930B0895A1E21A2EAA1BBB1B9B
:103F4000FD010DC0AA1FBB1FEE1FFF1FA217B30765
:103F5000E407F50720F0A21BB30BE40BF50B661F7B
:103F6000771F881F991F1A9469F76095709580953F
:103F700090959B01AC01BD01CF010895A29FB001B6
:103F8000B39FC001A39F700D811D1124911DB29F8D
:103F9000700D811D1124911D08950E94E11F0C9444
:103FA000C2200E94BB2058F00E94B42040F029F4A7
:103FB0005F3F29F00C94AB2051110C94F6200C9427
:103FC000B1200E94D32068F39923B1F3552391F3D4
:103FD000951B550BBB27AA2762177307840738F078
:103FE0009F5F5F4F220F331F441FAA1FA9F335D0D5
:103FF0000E2E3AF0E0E832D091505040E695001C89
:10400000CAF72BD0FE2F29D0660F771F881FBB1F42
:10401000261737074807AB07B0E809F0BB0B802D20
:10402000BF01FF2793585F4F3AF09E3F510578F04C
:104030000C94AB200C94F6205F3FE4F3983ED4F34D
:10404000869577956795B795F7959F5FC9F7880F20
:10405000911D9695879597F90895E1E0660F771F72
:10406000881FBB1F621773078407BA0720F0621B03
:10407000730B840BBA0BEE1F88F7E09508950E942E
:10408000DB2088F09F5798F0B92F9927B751B0F0EF
:10409000E1F0660F771F881F991F1AF0BA95C9F7CC
:1040A00014C0B13091F00E94F520B1E008950C9455
:1040B000F520672F782F8827B85F39F0B93FCCF308
:1040C000869577956795B395D9F73EF49095809549
:1040D000709561957F4F8F4F9F4F0895E89409C069
:1040E00097FB3EF490958095709561957F4F8F4F2B
:1040F0009F4F9923A9F0F92F96E9BB279395F69541
:10410000879577956795B795F111F8CFFAF4BB0FBE
:1041100011F460FF1BC06F5F7F4F8F4F9F4F16C022
:10412000882311F096E911C0772321F09EE8872FAC
:10413000762F05C0662371F096E8862F70E060E068
:104140002AF09A95660F771F881FDAF7880F9695E1
:10415000879597F9089597F99F6780E870E060E088
:1041600008959FEF80EC089500240A941616170610
:1041700018060906089500240A9412161306140658
:1041800005060895092E0394000C11F4882352F0BB
:10419000BB0F40F4BF2B11F460FF04C06F5F7F4F73
:1041A0008F4F9F4F089557FD9058440F551F59F05A
:1041B0005F3F71F04795880F97FB991F61F09F3F14
:1041C00079F087950895121613061406551FF2CF3D
:1041D0004695F1DF08C0161617061806991FF1CF8D
:1041E00086957105610508940895E894BB276627B4
:1041F0007727CB0197F90895DB018F939F930E9456
:10420000891FBF91AF91A29F800D911DA39F900D1B
:10421000B29F900D1124089597FB072E16F4009479
:1042200007D077FD09D00E942D2107FC05D03EF470
:10423000909581959F4F0895709561957F4F089552
:10424000EE0FFF1F0590F491E02D09940E94BE1F10
:10425000B7FF0895821B930B0895AA1BBB1B51E166
:1042600007C0AA1FBB1FA617B70710F0A61BB70BE6
:10427000881F991F5A95A9F780959095BC01CD018B
:10428000089581E090E0F8940C944621F894FFCFD3
:104290000100000000000000D217D217D2177917D2
:1042A0007517721700000000FE16BA16D21779179C
:1042B00075177217D21700000000FE16BA16A40672
:1042C00079177517A106570400000000FE16BA16EC
:1042D000F00879177517A106A60600000000FE1663
:1042E000BA163C0B79177517A106F20800000000FA
:1042F000FE16BA16880D79177517A1063E0B000039
:104300000000FE16BA16D40F79177517A1068A0D8C
:1043100000000000FE16BA16201279177517A106C4
:10432000D60F00000000FE16BA166C147917751728
:10433000A106221200000000FE16BA16B816791760
:104340007517A1066E144344454647414248000094
:1043500000008A02EA011702D702480226023A0246
:1043600000000000CF03A203FE037F03E1018F03DF
:1043700080030D0A0052616E646F6D697A65206E6C
:064380006F7465210000CE
:00000001FF
