:100000000C9458000C9480000C9480000C94800098
:100010000C9480000C9480000C9480000C94800060
:100020000C9480000C9480000C9480000C94800050
:100030000C9480000C9480000C9480000C94800040
:100040000C9469050C9480000C9437050C941105F0
:100050000C9480000C9480000C9480000C94800020
:100060000C94B3050C9480000000000025002800CB
:100070002B00040404040404040402020202020229
:10008000030303030303010204081020408001025C
:1000900004081020010204081020000000080002DB
:1000A0000100000304070000000000000000D20669
:1000B00011241FBECFEFD8E0DEBFCDBF11E0A0E01E
:1000C000B1E0E8EAF1E102C005900D92AA35B1076E
:1000D000D9F722E0AAE5B1E001C01D92AB3DB2071D
:1000E000E1F710E0C8E5D0E004C02197FE010E94CE
:1000F000CC08C735D107C9F70E940E070C94D20867
:100100000C940000982F2091220281E0213208F007
:1001100043C08091FE018111FCCF8091210232E029
:100120003093FE019093FD019FEF9093FC0110929C
:10013000FB012093FA01A1E0B2E0EAEDF1E090E0EA
:10014000291331C01092D9019091D901880F892BC0
:100150008093D9018091D801813049F51092D8015E
:100160008091D9018093BB008091BC0083FDF8CFC2
:1001700085EC8093BC008091FE018230E1F3809198
:10018000FC018F3FB1F08091FC018032A1F08091A1
:10019000FC01803391F084E0109200021092220260
:1001A0001092FF0108953D9131939F5FC9CF85EE75
:1001B000E0CF80E0F1CF82E0EFCF83E0EDCF90E0C1
:1001C000FC01E656FF4F2491FC01EA57FF4F3491A2
:1001D000FC01EE58FF4FE491EE23B1F0222339F0F9
:1001E0002330E9F090F4213001F1223011F1F0E0F8
:1001F000EE0FFF1FE859FF4FA591B4918FB7F89408
:10020000EC913E2B3C938FBF08952730A9F0283006
:10021000C9F0243061F7809180008F7D03C0809108
:1002200080008F7780938000E2CF84B58F7784BD84
:10023000DECF84B58F7DFBCF8091B0008F77809328
:10024000B000D5CF8091B0008F7DF9CF089508958B
:10025000AF92BF92CF92DF92EF92FF920F931F93D4
:10026000CF93DF936C017B018B01040F151FEB0112
:100270005E01AE18BF08C017D10759F06991D601C9
:10028000ED91FC910190F081E02DC6010995892B3B
:1002900079F7C501DF91CF911F910F91FF90EF90FA
:1002A000DF90CF90BF90AF900895FC01538D448DA7
:1002B000252F30E0842F90E0821B930B541710F011
:1002C000CF96089501970895FC01918D828D98171E
:1002D00061F0A28DAE0FBF2FB11D5D968C91928DF6
:1002E0009F5F9F73928F90E008958FEF9FEF089527
:1002F000FC01918D828D981731F0828DE80FF11DF0
:10030000858D90E008958FEF9FEF0895FC01918D0A
:10031000228D892F90E0805C9F4F821B91098F7303
:100320009927089583E292E00E94860121E0892BBB
:1003300009F420E0822F089580E090E0892B29F0D5
:100340000E94920181110C9400000895FC01A48D7B
:10035000A80FB92FB11DA35ABF4F2C91848D90E0E7
:1003600001968F739927848FA689B7892C93A089CA
:10037000B1898C91837080648C93938D848D981354
:1003800006C00288F389E02D80818F7D80830895E7
:10039000EF92FF920F931F93CF93DF93EC0181E0D5
:1003A000888F9B8D8C8D98131AC0E889F98980817C
:1003B00085FF15C09FB7F894EE89FF896083E889AF
:1003C000F98980818370806480839FBF81E090E0A1
:1003D000DF91CF911F910F91FF90EF900895F62E2E
:1003E0000B8D10E00F5F1F4F0F731127E02E8C8DC8
:1003F0008E110CC00FB607FCFACFE889F98980810D
:1004000085FFF5CFCE010E94A601F1CFEB8DEC0F59
:10041000FD2FF11DE35AFF4FF0829FB7F8940B8F29
:10042000EA89FB8980818062CFCFCF93DF93EC0193
:10043000888D8823B9F0AA89BB89E889F9898C91CC
:1004400085FD03C0808186FD0DC00FB607FCF7CF88
:100450008C9185FFF2CF808185FFEDCFCE010E9488
:10046000A601E9CFDF91CF9108953FB7F89480912D
:10047000C2019091C301A091C401B091C50126B5FC
:10048000A89B05C02F3F19F00196A11DB11D3FBFCC
:10049000BA2FA92F982F8827BC01CD01620F711D9B
:1004A000811D911D42E0660F771F881F991F4A9595
:1004B000D1F708958091CA019091CB01891B990BC6
:1004C000089585ED8093BC008091BC0084FDFCCF35
:1004D0001092FE01089520917A01260F3327331FD1
:1004E00021323105ECF42091FE01FC0190E080E026
:1004F000243069F082E00895A0917A012191AC0145
:10050000465A5E4FA40FB52FB11D2C930196861746
:1005100098F380917A01680F60937A0180E00895E2
:1005200081E008950895E091CB018091CA01E81718
:1005300030F4F0E0E356FE4F808190E008958FEFB5
:100540009FEF08959091CB018091CA012FEF3FEF6B
:10055000981748F4E92FF0E0E356FE4F208130E091
:100560009F5F9093CB01C9010895CF92DF92EF92E4
:10057000FF920F931F93CF93DF937C01CB018A01EE
:100580002091FF01222389F0EB016B01C40ED51EDF
:10059000CC15DD0569F06991D701ED91FC910190D1
:1005A000F081E02DC7010995F3CF642F0E946B0203
:1005B000C801DF91CF911F910F91FF90EF90DF90D5
:1005C000CF900895CF93DF931F92CDB7DEB76983A5
:1005D0002091FF012223F9F020912202203258F0CD
:1005E00021E030E0FC013383228390E080E00F9033
:1005F000DF91CF91089580910002E82FF0E0EF5F46
:10060000FD4F998190838F5F809300028093220237
:1006100081E090E0ECCF61E0CE0101960E946B0298
:10062000F7CFCF93DF93EA0191E09093FF0180939E
:100630002102109200021092220280EC92E00E94AD
:10064000E202688180EC92E00E94E20281E00E9476
:10065000820091E0811190E0892FDF91CF91089580
:1006600090E080E00895FC0101900020E9F73197C7
:10067000AF01481B590BBC0183E292E00C942801A6
:100680008F929F92AF92BF92CF92DF92EF92FF92A2
:100690000F931F93CF93DF93CDB7DEB7A1970FB61C
:1006A000F894DEBF0FBECDBF6C01990FEE08FF08B6
:1006B000F7FE41C06DE283E292E00E94C8018C0126
:1006C00022273327A9012C193D094E095F0919A2D8
:1006D000CE0181967C019AE0892E912CA12CB12C1F
:1006E000CA01B901A50194010E94AA08605DF70141
:1006F00062937F01211531054105510589F790E08D
:1007000080E0309719F0CF010E943303800F911FD2
:10071000A1960FB6F894DEBF0FBECDBFDF91CF918B
:100720001F910F91FF90EF90DF90CF90BF90AF900F
:100730009F908F900895A701960119A28E010F5DD9
:100740001F4F8AE0C82ED12CE12CF12CCA01B9012F
:10075000A70196010E94AA08605DF80162938F01CB
:10076000211531054105510589F790E080E030976A
:1007700079F2CF010E943303CBCF2F923F924F9259
:100780005F926F927F928F929F92AF92BF92CF9221
:10079000DF92EF92FF920F931F93CF93DF9300D0DE
:1007A00000D000D0CDB7DEB7C82E6A834E833C831D
:1007B0002B838FB7F8948090BE019090BF01A090DA
:1007C000C001B090C1018FBF2C2D220F2983EE8074
:1007D000D12C1D82FF24F3946E2C712C1801512C06
:1007E000412CF092FF01C09221021092000210925F
:1007F00022026A8180EC92E00E94E20281E00E9483
:100800008200F092FF011092000210922202809169
:10081000FE018111FCCF8E2D90E29E1508F480E23E
:10082000F092FE01F092FD012FEF2093FC01109257
:10083000FB019FEF980F9093FA01F092D9019091EC
:10084000D9012981922B9093D9019091D8019130AF
:10085000D1F51092D8019091D9019093BB0090915D
:10086000BC0093FDF8CF95EC9093BC009091FE01F5
:100870009130E1F39091FB01981710F48091FB0106
:10088000AAEDB1E0EDE9F1E090E0981320C01092FC
:10089000CB019093CA019091CA018091CB01981726
:1008A00071F101151105B9F480EC92E00E94A202E9
:1008B000EB81FC819D81E90FF11D97FDFA95808305
:1008C0009F5F9D83E8CF25EE2093BC00CFCF2D9175
:1008D00021939F5FDACF2FB7F8948091BE0190915A
:1008E000BF01A091C001B091C1012FBF8819990922
:1008F000AA09BB0982159305A405B505A8F22E81A6
:10090000D20EE21AD21608F46CCF01151105F9F0D7
:100910002FB7F8948091BE019091BF01A091C001C2
:10092000B091C1012FBF88199909AA09BB0930E00C
:1009300020E080179107A207B30748F02D81822F8E
:10094000220F990B8615970514F48FEF8D838D81F7
:1009500026960FB6F894DEBF0FBECDBFDF91CF91C4
:100960001F910F91FF90EF90DF90CF90BF90AF90CD
:100970009F908F907F906F905F904F903F902F90BF
:100980000895BF92CF92DF92EF92FF920F931F9341
:10099000CF93DF9300D0CDB7DEB7F82EE62EC42E6E
:1009A000B22ED02E08EE13E09E012E5F3F4F41E0A5
:1009B0000E94BD03882399F18C2D8B19990BAC01F2
:1009C0004F5F5F4F81E090E002C0880F991FBA949B
:1009D000E2F70197042E01C0880F0A94EAF70D2D63
:1009E00001C0000F4A95EAF7982F90952A8192232B
:1009F0008023892B8A838983AE014F5F5F4F6E2DE1
:100A00008F2D0E9411030F900F90DF91CF911F91B6
:100A10000F91FF90EF90DF90CF90BF90089580E00E
:100A2000F2CF1F920F920FB60F9211242F933F9384
:100A30004F935F936F937F938F939F93AF93BF93E6
:100A4000EF93FF9383E292E00E94A601FF91EF9162
:100A5000BF91AF919F918F917F916F915F914F91D6
:100A60003F912F910F900FBE0F901F9018951F92DE
:100A70000F920FB60F9211242F938F939F93EF93A2
:100A8000FF93E0913302F09134028081E0913902CA
:100A9000F0913A0282FD1BC0908180913C028F5FF1
:100AA0008F7320913D02821741F0E0913C02F0E00B
:100AB000ED5DFD4F958F80933C02FF91EF919F91EB
:100AC0008F912F910F900FBE0F901F9018958081DE
:100AD000F4CF1F920F920FB60F9211242F933F93D2
:100AE0008F939F93AF93BF938091BE019091BF016D
:100AF000A091C001B091C1013091BD0123E0230F4D
:100B00002D3758F50196A11DB11D2093BD0180938D
:100B1000BE019093BF01A093C001B093C101809129
:100B2000C2019091C301A091C401B091C501019689
:100B3000A11DB11D8093C2019093C301A093C40174
:100B4000B093C501BF91AF919F918F913F912F912C
:100B50000F900FBE0F901F90189526E8230F029656
:100B6000A11DB11DD2CF1F920F920FB60F9211246B
:100B70002F933F934F935F936F937F938F939F93A5
:100B8000AF93BF93EF93FF938091B900887F803636
:100B900009F44AC0F0F5883209F4A7C018F580318D
:100BA00009F49BC0B8F4882309F4F9C0883009F42B
:100BB00094C0FF91EF91BF91AF919F918F917F91E1
:100BC0006F915F914F913F912F910F900FBE0F90BA
:100BD0001F901895883109F488C0803251F78093AE
:100BE000FC0114C0803409F49DC040F48033B9F393
:100BF0008833F9F68093FC0185ECB0C0803509F4A8
:100C000085C0883509F496C0883499F60E9461023F
:100C1000D0CF883909F48CC038F5883729F050F4E2
:100C2000883611F0803729F683E08093FE01109218
:100C30009C0157C0883809F47BC0803919F080388E
:100C400009F0B7CF80919C01803208F071C0E0912B
:100C50009C0181E08E0F80939C018091BB00F0E0AD
:100C6000E458FE4F80833DC0803B39F0E0F4803A89
:100C700009F479C0883A09F09CCF84E08093FE01A2
:100C800010927B0110927A01E091C801F091C901A4
:100C9000099580917A0181110FC081E080937A01DA
:100CA00010925A0109C0803C09F4A6CF883C09F48F
:100CB000A3CF883B09F07DCFE0917B0181E08E0FCF
:100CC00080937B01F0E0E65AFE4F80818093BB0069
:100CD00090917B0180917A0129C08091D901809304
:100CE000BB0085EC8093BC0064CF9091FB018091A8
:100CF000FA01981758F5E091FB0181E08E0F80937F
:100D0000FB01F0E0E652FE4F8081E9CFE091FB016C
:100D100081E08E0F8093FB018091BB00F0E0E652F2
:100D2000FE4F80839091FB018091FA019817C8F2E1
:100D300085E8D8CFE091FB0181E08E0F8093FB0125
:100D40008091BB00F0E0E652FE4F80838091FD0170
:100D500081115CCF81E08093D80184EA8093BC004C
:100D60001092FE0126CF85EC8093BC001092FE010C
:100D700080919C01803230F4E0919C01F0E0E458D5
:100D8000FE4F108260919C0170E0E091C601F091ED
:100D9000C7018CE791E0099510929C010ACF10924F
:100DA000FC0134CFE3E2F2E01382128288EE93E09A
:100DB000A0E0B0E084839583A683B78324E031E08C
:100DC0003183208325EC30E03587248724EC30E024
:100DD0003787268720EC30E0318B208B21EC30E008
:100DE000338B228B22EC30E0358B248B26EC30E0E9
:100DF000378B268B118E128E138E148EE0ECF2E060
:100E00001382128284839583A683B78386E191E05F
:100E10009183808388E68093CC020895CF93DF93FB
:100E200000D0CDB7DEB7789484B5826084BD84B538
:100E3000816084BD85B5826085BD85B5816085BDD5
:100E400080916E00816080936E001092810080918D
:100E50008100826080938100809181008160809315
:100E60008100809180008160809380008091B1003A
:100E700084608093B1008091B00081608093B00065
:100E800080917A00846080937A0080917A008260F9
:100E900080937A0080917A00816080937A008091BB
:100EA0007A00806880937A001092C100E09133024A
:100EB000F091340282E08083E0912F02F0913002C1
:100EC0001082E0913102F091320280E18083109231
:100ED0003B02E0913702F091380286E08083E09196
:100EE0003502F0913602808180618083E091350285
:100EF000F0913602808188608083E0913502F09124
:100F00003602808180688083E0913502F09136025C
:100F100080818F7D80831092CB011092CA01109244
:100F20000002109222021092FE0181E08093FD01E6
:100F30001092D80182E10E94DF0083E10E94DF006D
:100F40008091B9008E7F8093B9008091B9008D7F28
:100F50008093B90088E48093B80085E48093BC0056
:100F600086E291E09093C9018093C80187E291E005
:100F70009093C7018093C60101E023E042E06BE655
:100F80008091CC020E94C10400E022E044E06BE1C9
:100F90008091CC020E94C10422E044E06CE1809187
:100FA000CC020E94C104F090CC0208EE13E09E0136
:100FB0002E5F3F4F41E06BE68F2D0E94BD038A817B
:100FC0008F7B8A838983AE014F5F5F4F6BE68F2DE6
:100FD0000E94110390E0A92E90E0B92E08EE13E0D4
:100FE0002DEC32E04EE06BE38091CC020E94BD0319
:100FF0008091CD029091CE029827892798279093CF
:10100000D7018093D6018091CF029091D00298278A
:10101000892798279093D5018093D4018091D1029C
:101020009091D2029827892798279093D301809393
:10103000D2018091D5029091D602982789279827CE
:101040009093D1018093D0018091D7029091D802E2
:101050009827892798279093CF018093CE0180917C
:10106000D9029091DA029827892798279093CD0189
:101070008093CC0184E291E00E9433038091D601F9
:101080009091D7010E94400389E291E00E943303CE
:101090008091D4019091D5010E94400382E391E0B8
:1010A0000E9433038091D2019091D3010E944003AA
:1010B0008BE391E00E9433038091D0019091D101A4
:1010C0000E94400384E491E00E9433038091CE01AA
:1010D0009091CF010E9440038DE491E00E94330380
:1010E0008091CC019091CD010E94400386E591E072
:1010F0000E9433030E9435022B013C0184E6C82E76
:10110000D12CE12CF12C0E94350264197509860955
:101110009709683E734081059105A8F321E0C21A42
:10112000D108E108F10888EE480E83E0581E611CE2
:10113000711CC114D104E104F10429F7A114B10414
:1011400009F44CCF0E949201882309F447CF0E94F2
:10115000000044CFA1E21A2EAA1BBB1BFD010DC04B
:10116000AA1FBB1FEE1FFF1FA217B307E407F50757
:1011700020F0A21BB30BE40BF50B661F771F881F33
:10118000991F1A9469F760957095809590959B01C9
:10119000AC01BD01CF010895EE0FFF1F0590F49142
:0811A000E02D0994F894FFCF43
:1011A80000000000C80128015501150286016401EC
:1011B800780100000000E202B502300392025A02F0
:1011C800A202930261783A200009207C2061793AD2
:1011D800200009207C20617A3A200009207C2067C1
:1011E800783A200009207C2067793A200009207C81
:0A11F80020677A3A20000D0A00007B
:107E0000112484B714BE81FFF0D085E080938100F7
:107E100082E08093C00088E18093C10086E0809377
:107E2000C20080E18093C4008EE0C9D0259A86E02C
:107E300020E33CEF91E0309385002093840096BBD3
:107E4000B09BFECF1D9AA8958150A9F7CC24DD24C4
:107E500088248394B5E0AB2EA1E19A2EF3E0BF2EE7
:107E6000A2D0813461F49FD0082FAFD0023811F036
:107E7000013811F484E001C083E08DD089C08234E0
:107E800011F484E103C0853419F485E0A6D080C0E4
:107E9000853579F488D0E82EFF2485D0082F10E0AE
:107EA000102F00270E291F29000F111F8ED06801E7
:107EB0006FC0863521F484E090D080E0DECF843638
:107EC00009F040C070D06FD0082F6DD080E0C81688
:107ED00080E7D80618F4F601B7BEE895C0E0D1E017
:107EE00062D089930C17E1F7F0E0CF16F0E7DF06D8
:107EF00018F0F601B7BEE89568D007B600FCFDCFD4
:107F0000A601A0E0B1E02C9130E011968C91119780
:107F100090E0982F8827822B932B1296FA010C0160
:107F200087BEE89511244E5F5F4FF1E0A038BF0790
:107F300051F7F601A7BEE89507B600FCFDCF97BE46
:107F4000E89526C08437B1F42ED02DD0F82E2BD052
:107F50003CD0F601EF2C8F010F5F1F4F84911BD097
:107F6000EA94F801C1F70894C11CD11CFA94CF0C13
:107F7000D11C0EC0853739F428D08EE10CD085E9AC
:107F80000AD08FE07ACF813511F488E018D01DD067
:107F900080E101D065CF982F8091C00085FFFCCF94
:107FA0009093C60008958091C00087FFFCCF809118
:107FB000C00084FD01C0A8958091C6000895E0E648
:107FC000F0E098E1908380830895EDDF803219F02E
:107FD00088E0F5DFFFCF84E1DECF1F93182FE3DFCA
:107FE0001150E9F7F2DF1F91089580E0E8DFEE27F6
:047FF000FF270994CA
:027FFE00040479
:0400000300007E007B
:00000001FF
