:100000000C9435000C945D000C945D000C945D0024
:100010000C945D000C945D000C945D000C945D00EC
:100020000C945D000C945D000C945D000C945D00DC
:100030000C945D000C945D000C945D000C945D00CC
:100040000C9439020C945D000C9407020C94E101AD
:100050000C945D000C945D000C945D000C945D00AC
:100060000C945D000C945D00650311241FBECFEF5E
:10007000D8E0DEBFCDBF11E0A0E0B1E0E2E4F9E0FE
:1000800002C005900D92AE32B107D9F721E0AEE281
:10009000B1E001C01D92A43DB207E1F710E0C5E355
:1000A000D0E004C02197FE010E949904C433D10717
:1000B000C9F70E9483020C949F040C940000AF9235
:1000C000BF92CF92DF92EF92FF920F931F93CF9345
:1000D000DF936C017B018B01040F151FEB015E01A7
:1000E000AE18BF08C017D10759F06991D601ED913C
:1000F000FC910190F081E02DC6010995892B79F7DB
:10010000C501DF91CF911F910F91FF90EF90DF908C
:10011000CF90BF90AF900895FC01538D448D252F53
:1001200030E0842F90E0821B930B541710F0CF9691
:10013000089501970895FC01918D828D981761F0C3
:10014000A28DAE0FBF2FB11D5D968C91928D9F5FDA
:100150009F73928F90E008958FEF9FEF0895FC01B9
:10016000918D828D981731F0828DE80FF11D858D6C
:1001700090E008958FEF9FEF0895FC01918D228DFF
:10018000892F90E0805C9F4F821B91098F73992784
:10019000089587E391E00E94BD0021E0892B09F4D6
:1001A00020E0822F089580E090E0892B29F00E94C2
:1001B000C90081110C9400000895FC01A48DA80FC2
:1001C000B92FB11DA35ABF4F2C91848D90E0019699
:1001D0008F739927848FA689B7892C93A089B189B9
:1001E0008C91837080648C93938D848D981306C05A
:1001F0000288F389E02D80818F7D80830895EF92BE
:10020000FF920F931F93CF93DF93EC0181E0888FD0
:100210009B8D8C8D98131AC0E889F989808185FFA0
:1002200015C09FB7F894EE89FF896083E889F98942
:1002300080818370806480839FBF81E090E0DF9144
:10024000CF911F910F91FF90EF900895F62E0B8D97
:1002500010E00F5F1F4F0F731127E02E8C8D8E1152
:100260000CC00FB607FCFACFE889F989808185FFB9
:10027000F5CFCE010E94DD00F1CFEB8DEC0FFD2F0D
:10028000F11DE35AFF4FF0829FB7F8940B8FEA8974
:10029000FB8980818062CFCFCF93DF93EC01888D83
:1002A0008823B9F0AA89BB89E889F9898C9185FDF1
:1002B00003C0808186FD0DC00FB607FCF7CF8C917F
:1002C00085FFF2CF808185FFEDCFCE010E94DD005A
:1002D000E9CFDF91CF9108953FB7F8948091330132
:1002E00090913401A0913501B091360126B5A89BBB
:1002F00005C02F3F19F00196A11DB11D3FBFBA2FB8
:10030000A92F982F8827BC01CD01620F711D811D77
:10031000911D42E0660F771F881F991F4A95D1F7FC
:1003200008958F929F92AF92BF92CF92DF92EF92F9
:10033000FF926B017C010E946C014B015C01C114B6
:10034000D104E104F104B9F00E946C016819790943
:100350008A099B09683E73408105910580F321E07D
:10036000C21AD108E108F10888EE880E83E0981ED1
:10037000A11CB11CE4CFFF90EF90DF90CF90BF9015
:10038000AF909F908F900895CF93DF93FC010190E1
:100390000020E9F73197AF01481B590BBC0187E3F7
:1003A00091E00E945F00EC0142E050E066E171E004
:1003B00087E391E00E945F008C0F9D1FDF91CF913A
:1003C00008951F920F920FB60F9211242F933F930F
:1003D0004F935F936F937F938F939F93AF93BF934D
:1003E000EF93FF9387E391E00E94DD00FF91EF918F
:1003F000BF91AF919F918F917F916F915F914F913D
:100400003F912F910F900FBE0F901F9018951F9244
:100410000F920FB60F9211242F938F939F93EF9308
:10042000FF93E0914701F09148018081E0914D01F7
:10043000F0914E0182FD1BC09081809150018F5F31
:100440008F7320915101821741F0E0915001F0E04B
:10045000E95CFE4F958F80935001FF91EF919F9142
:100460008F912F910F900FBE0F901F901895808144
:10047000F4CF1F920F920FB60F9211242F933F9338
:100480008F939F93AF93BF9380912F0190913001F1
:10049000A0913101B091320130912E0123E0230F60
:1004A0002D3758F50196A11DB11D20932E01809383
:1004B0002F0190933001A0933101B09332018091CC
:1004C000330190913401A0913501B091360101962C
:1004D000A11DB11D8093330190933401A093350188
:1004E000B0933601BF91AF919F918F913F912F9122
:1004F0000F900FBE0F901F90189526E8230F0296BD
:10050000A11DB11DD2CF789484B5826084BD84B51D
:10051000816084BD85B5826085BD85B5816085BDFE
:1005200080916E00816080936E00109281008091B6
:10053000810082608093810080918100816080933E
:100540008100809180008160809380008091B10063
:1005500084608093B1008091B00081608093B0008E
:1005600080917A00846080937A0080917A00826022
:1005700080937A0080917A00816080937A008091E4
:100580007A00806880937A001092C100E091470160
:10059000F091480182E08083E0914701F0914801A9
:1005A0001082E0914301F09144011082E0914501F5
:1005B000F091460180E1808310924F01E0914B0160
:1005C000F0914C0186E08083E0914901F0914A016D
:1005D000808180618083E0914901F0914A018081AE
:1005E00088608083E0914901F0914A0180818068B0
:1005F0008083E0914901F0914A0180818F7D808361
:1006000080E480937C0080917A00806480937A00FB
:1006100080917A0086FDFCCF80917800609179000E
:10062000762F682F072E000C880B990B611571052A
:100630008105910511F00E942D0487E0C82ED12C70
:10064000E12CF12CC0E0D0E00E94DE03A70196016E
:100650000E9436046F5F7F4F8F4F9F4FFB01319792
:1006600087E291E0E730F10568F4E75CFC4F0C9419
:10067000990440035303560359035C035F03620369
:1006800089E191E00E94C4016AEF70E080E090E0AF
:100690000E9491012097C1F20E94C9008823A1F213
:1006A0000E940000D1CF8BE191E0ECCF8DE191E091
:1006B000E9CF8FE191E0E6CF81E291E0E3CF83E201
:1006C00091E0E0CF85E291E0DDCFE7E3F1E0138256
:1006D000128288EE93E0A0E0B0E084839583A68345
:1006E000B78388E091E09183808385EC90E09587E3
:1006F000848784EC90E09787868780EC90E0918BEC
:10070000808B81EC90E0938B828B82EC90E0958BD8
:10071000848B86EC90E0978B868B118E128E138ED5
:10072000148E08958F929F92AF92BF92CF92DF92D4
:10073000EF92FF92CF93DF93EC01688179818A81F8
:100740009B81611571058105910521F464E279EDC4
:100750008BE597E02DE133EF41E050E00E94360455
:1007600049015A019B01AC01A7EAB1E40E9455047A
:100770006B017C01ACEEB4EFA50194010E9463040F
:10078000C60ED71EE81EF91EF7FE06C081E0C81A85
:10079000D108E10880E8F80AC882D982EA82FB829F
:1007A000C701B6019F77DF91CF91FF90EF90DF9067
:1007B000CF90BF90AF909F908F9008958F929F920F
:1007C000AF92BF92CF92DF92EF92FF9260910001C1
:1007D00070910101809102019091030161157105F1
:1007E0008105910521F464E279ED8BE597E02DE137
:1007F00033EF41E050E00E94360449015A019B0169
:10080000AC01A7EAB1E40E9455046B017C01ACEE97
:10081000B4EFA50194010E946304C60ED71EE81E22
:10082000F91EF7FE06C081E0C81AD108E10880E889
:10083000F80AC0920001D0920101E0920201F09208
:100840000301C701B6019F77FF90EF90DF90CF9033
:10085000BF90AF909F908F90089560930001709328
:10086000010180930201909303010895052E97FBE7
:100870001EF400940E944D0457FD07D00E946804A6
:1008800007FC03D04EF40C944D04509540953095E0
:1008900021953F4F4F4F5F4F0895909580957095EC
:1008A00061957F4F8F4F9F4F08950E948A04A59FA7
:1008B000900DB49F900DA49F800D911D112408955B
:1008C000B7FF0C9455040E945504821B930B0895A6
:1008D000A1E21A2EAA1BBB1BFD010DC0AA1FBB1F44
:1008E000EE1FFF1FA217B307E407F50720F0A21BB6
:1008F000B30BE40BF50B661F771F881F991F1A9423
:1009000069F760957095809590959B01AC01BD014C
:10091000CF010895A29FB001B39FC001A39F700DA6
:10092000811D1124911DB29F700D811D1124911DF7
:100930000895EE0FFF1F0590F491E02D0994F894AF
:02094000FFCFE7
:100942000100000000000000FF005F008C004C016D
:10095200BD009B00AF000D0A004300440045004665
:0E096200004700410042004572726F72210092
:00000001FF
