:100000000C946B000C9493000C9493000C9493004C
:100010000C9493000C9493000C9493000C94930014
:100020000C9493000C9493000C9493000C94930004
:100030000C9493000C9493000C9493000C949300F4
:100040000C9448040C9493000C9416040C94F00344
:100050000C9493000C9493000C9493000C949300D4
:100060000C9493000C9493000000000025002800DD
:100070002B0000000000240027002A001112131496
:1000800015160A0B0C0D0E0F0000000023002600B1
:10009000290004040404040404040202020202020B
:1000A000030303030303010204081020408001023C
:1000B00004081020010204081020000102030405B6
:1000C0000000000800020100000304070000000017
:1000D00000000000D70411241FBECFEFD8E0DEBF20
:1000E000CDBF22E0A6E4B1E001C01D92A331B2076A
:1000F000E1F711E0A0E0B1E0E6E2F7E102C005902F
:100100000D92A634B107D9F710E0CBE6D0E004C0D9
:100110002197FE010E948B0BCA36D107C9F70E94B6
:100120001D050C94910B0C9400008230910538F061
:10013000880F991F880F991F05970197F1F7089568
:10014000AF92BF92CF92DF92EF92FF920F931F93E5
:10015000CF93DF936C017B018B01040F151FEB0123
:100160005E01AE18BF08C017D10759F06991D601DA
:10017000ED91FC910190F081E02DC6010995892B4C
:1001800079F7C501DF91CF911F910F91FF90EF900B
:10019000DF90CF90BF90AF900895FC01538D448DB8
:1001A000252F30E0842F90E0821B930B541710F022
:1001B000CF96089501970895FC01918D828D98172F
:1001C00061F0A28DAE0FBF2FB11D5D968C91928D07
:1001D0009F5F9F73928F90E008958FEF9FEF089538
:1001E000FC01918D828D981731F0828DE80FF11D01
:1001F000858D90E008958FEF9FEF0895FC01918D1C
:10020000228D892F90E0805C9F4F821B91098F7314
:10021000992708958EE591E00E94FE0021E0892B48
:1002200009F420E0822F089580E090E0892B29F0E6
:100230000E940A0181110C9400000895FC01A48D14
:10024000A80FB92FB11DA35ABF4F2C91848D90E0F8
:1002500001968F739927848FA689B7892C93A089DB
:10026000B1898C91837080648C93938D848D981365
:1002700006C00288F389E02D80818F7D80830895F8
:10028000EF92FF920F931F93CF93DF93EC0181E0E6
:10029000888F9B8D8C8D98131AC0E889F98980818D
:1002A00085FF15C09FB7F894EE89FF896083E889C0
:1002B000F98980818370806480839FBF81E090E0B2
:1002C000DF91CF911F910F91FF90EF900895F62E3F
:1002D0000B8D10E00F5F1F4F0F731127E02E8C8DD9
:1002E0008E110CC00FB607FCFACFE889F98980811E
:1002F00085FFF5CFCE010E941E01F1CFEB8DEC0FF3
:10030000FD2FF11DE35AFF4FF0829FB7F8940B8F3A
:10031000EA89FB8980818062CFCFCF93DF93EC01A4
:10032000888D8823B9F0AA89BB89E889F9898C91DD
:1003300085FD03C0808186FD0DC00FB607FCF7CF99
:100340008C9185FFF2CF808185FFEDCFCE010E9499
:100350001E01E9CFDF91CF91089590E0FC01E054B8
:10036000FF4F2491FC01EA55FF4F3491FC01EE56FA
:10037000FF4FE491EE23C9F0222339F0233001F13D
:10038000A8F4213019F1223029F1F0E0EE0FFF1F1F
:10039000E859FF4FA591B4918FB7F894EC91611192
:1003A00026C030953E233C938FBF08952730A9F097
:1003B0002830C9F0243049F7809180008F7D03C038
:1003C000809180008F7780938000DFCF84B58F7716
:1003D00084BDDBCF84B58F7DFBCF8091B0008F775C
:1003E0008093B000D2CF8091B0008F7DF9CF3E2BAB
:1003F000DACFCF93DF939CB59F7D9CBD9CB5937F57
:100400009CBD9CB59C7F9CBD9DB591609DBDCBEF77
:10041000D1E0682F8A810E94AD018C899D89DF918E
:10042000CF910C94950081E00C94F90180E00C943C
:10043000F9012091FB013091FC014091FD015091A7
:10044000FE012417350721F0682F822F0C94AD018F
:100450000895CF93DF9390E0FC01EA55FF4F24917C
:100460008E569F4FFC0184918823D1F090E0880F35
:10047000991FFC01EE58FF4FA591B491FC01E8597A
:10048000FF4FC591D49161110EC09FB7F8948C9124
:10049000E22FE0958E238C932881E223E8839FBF8F
:1004A000DF91CF9108958FB7F894EC91E22BEC9304
:1004B0008FBFF6CF3FB7F8948091470190914801E4
:1004C000A0914901B0914A0126B5A89B05C02F3FD4
:1004D00019F00196A11DB11D3FBFBA2FA92F982F6A
:1004E0008827BC01CD01620F711D811D911D42E065
:1004F000660F771F881F991F4A95D1F708958F922D
:100500009F92AF92BF92CF92DF92EF92FF920E94A2
:100510005A024B015C0185E0C82ED12CE12CF12C54
:100520000E945A02681979098A099B09683E73403A
:1005300081059105A8F321E0C21AD108E108F1086C
:1005400088EE880E83E0981EA11CB11CC114D10452
:10055000E104F10429F7FF90EF90DF90CF90BF9076
:10056000AF909F908F9008958EBD00000DB407FE50
:10057000FDCF8EB50895CF93DF93C82FD62F0E945D
:1005800016028C2F8F7180620E94B402C82F8D2FAB
:100590000E94B4020E9413028C2FDF91CF91089524
:1005A000EF92FF920F931F93CF93DF93C82F7B019E
:1005B000142F0E9416028C2F8F7180620E94B40249
:1005C000082FE701115020F089910E94B402FACF60
:1005D0000E941302802FDF91CF911F910F91FF9006
:1005E000EF900895CF93C82F0E9416028C2F0E947F
:1005F000B4028FEF0E94B402C82F0E9413028C2F06
:10060000CF91089580E00E94F20281FD07C0682F1B
:10061000626080E00E94BB020C947F020895CF9339
:100620000E94160281EE0E94B402C82F0E9413029B
:100630008C2FCF91089560E08AE00E94AD0160E0C8
:1006400089E00E94AD0160E086E00E94AD0160E0BB
:1006500082E00C94AD01FC0101900020E9F7319794
:10066000AF01481B590BBC018EE591E00C94A00032
:100670008F929F92AF92BF920F931F93CF93DF936E
:10068000CDB7DEB7A1970FB6F894DEBF0FBECDBFD2
:1006900019A2423008F44AE08E010F5D1F4F842EEC
:1006A000912CB12CA12CA50194010E94690BE62F7D
:1006B000B901CA01EA30F4F4E05DD801EE938D018E
:1006C000232B242B252B79F790E080E0109719F04D
:1006D000CD010E942B03A1960FB6F894DEBF0FBE8A
:1006E000CDBFDF91CF911F910F91BF90AF909F90A1
:1006F0008F900895E95CE1CFCF92DF92EF92FF9265
:10070000CF93DF936B017C016DE28EE591E00E9457
:100710004001EC0166277727CB016C197D098E0912
:100720009F094AE00E9438038C0F9D1FDF91CF91F3
:10073000FF90EF90DF90CF900895CF93C82F61E0A6
:100740000E942902EC2FF0E0E054FF4FE491E330E7
:1007500049F148F4E130C9F0E230F1F060E08C2F6B
:10076000CF910C94AD01E73049F1E83081F1E430EC
:10077000A9F7809180008062809380008AE590E0F4
:1007800090938B0080938A0005C084B5806884BDF7
:100790008AE587BDCF91089584B5806284BD8AE5DE
:1007A00088BDF8CF809180008068809380008AE5C2
:1007B00090E09093890080938800ECCF8091B00006
:1007C00080688093B0008AE58093B300E3CF809186
:1007D000B00080628093B0008AE58093B400DACFE5
:1007E0001F920F920FB60F9211242F933F934F93A6
:1007F0005F936F937F938F939F93AF93BF93EF9389
:10080000FF938EE591E00E941E01FF91EF91BF9151
:10081000AF919F918F917F916F915F914F913F9198
:100820002F910F900FBE0F901F9018951F920F924F
:100830000FB60F9211242F938F939F93EF93FF93F3
:10084000E0916E01F0916F018081E0917401F0916F
:10085000750182FD1BC09081809177018F5F8F733E
:1008600020917801821741F0E0917701F0E0E25A9F
:10087000FE4F958F80937701FF91EF919F918F911C
:100880002F910F900FBE0F901F9018958081F4CF7D
:100890001F920F920FB60F9211242F933F938F93B5
:1008A0009F93AF93BF9380914C0190914D01A09184
:1008B0004E01B0914F013091460123E0230F2D37B7
:1008C00058F50196A11DB11D2093460180934C015E
:1008D00090934D01A0934E01B0934F018091470139
:1008E00090914801A0914901B0914A010196A11D42
:1008F000B11D8093470190934801A0934901B093A3
:100900004A01BF91AF919F918F913F912F910F908D
:100910000FBE0F901F90189526E8230F0296A11D79
:10092000B11DD2CFCF92DF92EF92FF920F931F9320
:10093000E82FF92F05C0015011092109310961F192
:10094000908196239417B9F305C00150110921092C
:10095000310911F1908196239413F7CFC12CD12C3A
:10096000E12CF12C0AC08FEFC81AD80AE80AF80A5D
:100970000C151D052E053F0579F08081862384170F
:1009800091F36C2D7D2D8E2D9F2D1F910F91FF903A
:10099000EF90DF90CF90089560E070E080E090E00D
:1009A0001F910F91FF90EF90DF90CF900895EEE5AB
:1009B000F1E01382128288EE93E0A0E0B0E084833D
:1009C0009583A683B78380E191E09183808385EC52
:1009D00090E09587848784EC90E09787868780EC09
:1009E00090E0918B808B81EC90E0938B828B82ECFA
:1009F00090E0958B848B86EC90E0978B868B118EA4
:100A0000128E138E148EEBEFF1E087E090E091836D
:100A1000808388E090E093838283168280E28783DC
:100A2000108685E0868785E090E0A0E0B0E0848BCA
:100A3000958BA68BB78B11860895789484B58260C8
:100A400084BD84B5816084BD85B5826085BD85B572
:100A5000816085BD80916E00816080936E001092F0
:100A6000810080918100826080938100809181006B
:100A700081608093810080918000816080938000FC
:100A80008091B10084608093B1008091B00081605A
:100A90008093B00080917A00846080937A00809186
:100AA0007A00826080937A0080917A0081608093DE
:100AB0007A0080917A00806880937A001092C10059
:100AC000E0916E01F0916F0182E08083E0916A0114
:100AD000F0916B011082E0916C01F0916D018FEC4F
:100AE000808310927601E0917201F091730186E0AB
:100AF0008083E0917001F091710180818061808339
:100B0000E0917001F0917101808188608083E091B3
:100B10007001F0917101808180688083E0917001A3
:100B2000F091710180818F7D80838091FB01909194
:100B3000FC012091FD013091FE018217930719F00D
:100B400061E00E9429028091FD019091FE012091B7
:100B5000FB013091FC012817390719F061E00E9470
:100B60002902CFB7F89480914B01811127C0ECE99D
:100B7000F0E08491E0EBF0E09491E82FF0E0EE0FEC
:100B8000FF1FEE58FF4FA591B491EC91E92321F49A
:100B900061E08AE00E94AD0161E08AE00E942902E2
:100BA0008CB580618CBD8CB580648CBD61E08DE0BE
:100BB0000E94290261E08BE00E94290280914B0192
:100BC0008F5F80934B01CFBF80E00E94190281E0CC
:100BD0000E94F9010E947F026CE080E00E94BB024B
:100BE0006FE584E00E94BB0286E00E94F202877DEE
:100BF000C82FC0628BE990E0A0E0B0E080930B02C8
:100C000090930C02A0930D02B0930E026C2F86E01D
:100C10000E94BB0286E00E94F202C81303C081E07A
:100C20008093010286E00E94F20286E00E94F202B6
:100C300045E550E060E070E040930B0250930C02F9
:100C400060930D0270930E02682F677D86E00E940C
:100C5000BB0286E00E94F2020E94160280E50E941A
:100C6000B40283E70E94B4020E94130260E08DE1A7
:100C70000E94BB0260E08CE10E94BB021092030262
:100C800060E787E00E94BB026CE485E00E94BB0243
:100C90000E94160282EE0E94B4020E9413020E9479
:100CA0000F030E94020380E00E94F202682F6E7F11
:100CB00080E00E94BB02E3E8F0E0849140910902E9
:100CC00060E071E00E94D002EDE7F0E08491609175
:100CD00002020E94BB0282E00E94F202EBEBF0E013
:100CE000E49161E070E001C0660FEA95EAF7682BD5
:100CF00082E00E94BB024091090266E071E08AE056
:100D00000E94D0024091090266E071E080E10E94F9
:100D1000D0026091020281E10E94BB0261E08EE09C
:100D20000E94290260E08FE00E94290261E08AE0CF
:100D30000E94290261E089E00E94290261E085E0C9
:100D40000E94290261E086E00E94290261E082E0BF
:100D50000E94290261E083E00E9429025BE1E52E06
:100D6000F12C6AEB862E60E0962ECC24C394D12C15
:100D7000E0E02E2EE0E03E2EC1E0D0E0F2E0AF2E2B
:100D8000B12C8EE191E00E942B0360E08EE00E9486
:100D9000AD01C7010197F1F761E08EE00E94AD015E
:100DA000C7010197F1F760E08EE00E94AD01C70135
:100DB0000197F1F7E5EBF0E06491E1EAF0E084916E
:100DC000E82FF0E0EE0FFF1FE857FF4F8591949159
:100DD00000E412E42FE030E0462F0E9492046115F7
:100DE00071058105910529F06F5F7F4F8F4F9F4FF0
:100DF0009F7095958795779567950E94DD0A2DECF4
:100E00003CEC48EE51E40E94330A0E94A50A60932C
:100E1000520170935301809354019093550186E2DF
:100E200091E00E942B0360915201709153018091D7
:100E300054019091550197FF4CC00E947C0382E2BF
:100E400091E00E942B030E94020380E00E94F202C4
:100E5000682F616080E00E94BB0260E787E00E942B
:100E6000BB0281E00E941902809104028823A9F14B
:100E70004091090264E072E08AE00E94D0028DE1B4
:100E80000E94F20281FD0E940F0387E10E94F2029C
:100E900080FD42C080910202682E863010F026E06C
:100EA000622E90910302782E76189111712C0E9477
:100EB000160281E60E94B40208E511E06A94FFEF91
:100EC0006F16E1F08FEF0E94B402F80181938F0159
:100ED000F5CF4AE00E943803B2CF82E00E94F202CE
:100EE000F4019491960101C0220F9A95EAF720959A
:100EF000622F682382E00E94BB02C1CF7A94FFEF89
:100F00007F1621F08FEF0E94B402F8CF0E941302E7
:100F100060E787E00E94BB0280915A0190915B01DB
:100F2000019709F053C0009156011091570180912B
:100F30005801909159018017910731F40E941B03C9
:100F4000B0925D01A0925C0180915801909159018D
:100F500080179107D4F460E08AE00E94AD0161E05F
:100F600089E00E94AD0185E00E949D0360E086E07B
:100F70000E94AD0161E082E00E94AD0183E00E9429
:100F80009D0310925D0110925C0180915801909137
:100F9000590108171907D4F461E08AE00E94AD01F5
:100FA00060E089E00E94AD0185E00E949D0361E060
:100FB00086E00E94AD0160E082E00E94AD0183E026
:100FC0000E949D03D0935D01C0935C018EE291E08D
:100FD0000E942B0360915A0170915B01072E000C57
:100FE000880B990B97FFE6C10E947C0382E291E097
:100FF0000E942B038091580190915901099711F596
:101000008091520190915301A0915401B0915501EA
:101010008A5A9109A109B1090697A105B10590F471
:101020000E941B0310925B0110925A01D093510150
:10103000C0935001809158019091590190935701AC
:10104000809356018091580190915901089711F5AC
:101050008091520190915301A0915401B09155019A
:1010600086599109A109B1090B97A105B10590F421
:101070000E941B0310925B0110925A01D093510100
:10108000C09350018091580190915901909357015C
:10109000809356018091580190915901079711F55D
:1010A0008091520190915301A0915401B09155014A
:1010B00082589109A109B1090B97A105B10590F4D6
:1010C0000E941B0310925B0110925A01D0935101B0
:1010D000C09350018091580190915901909357010C
:1010E000809356018091580190915901069711F50E
:1010F0008091520190915301A0915401B0915501FA
:101100008E569109A109B1090B97A105B10590F47B
:101110000E941B0310925B0110925A01D09351015F
:10112000C0935001809158019091590190935701BB
:10113000809356018091580190915901059711F5BE
:101140008091520190915301A0915401B0915501A9
:101150008A559109A109B1090B97A105B10590F430
:101160000E941B0310925B0110925A01D09351010F
:10117000C09350018091580190915901909357016B
:10118000809356018091580190915901049711F56F
:101190008091520190915301A0915401B091550159
:1011A00086549109A109B1090B97A105B10590F4E5
:1011B0000E941B0310925B0110925A01D0935101BF
:1011C000C09350018091580190915901909357011B
:1011D000809356018091580190915901039709F528
:1011E0008091520190915301A0915401B091550109
:1011F000C297A109B1090B97A105B10590F40E940E
:101200001B0310925B0110925A01D0935101C093BD
:10121000500180915801909159019093570180930A
:1012200056018091580190915901029709F58091DA
:10123000520190915301A0915401B09155014E97E4
:10124000A109B1090B97A105B10590F40E941B03F8
:1012500010925B0110925A01D0935101C09350013A
:1012600080915801909159019093570180935601B4
:10127000009158011091590101301105F1F480914C
:10128000520190915301A0915401B09155014097A2
:10129000A105B10591F40E941B0310925B0110920D
:1012A0005A0110935101009350018091580190917F
:1012B0005901909357018093560180915801909164
:1012C0005901892BF1F48091520190915301A09121
:1012D0005401B09155010297A105B10591F40E9406
:1012E0001B0310925B0110925A01D0935101C093DD
:1012F000500180915801909159019093570180932A
:1013000056018091500190915101019709F093C0CD
:101310008CE391E00E942B0382E491E00E942B0376
:1013200080E00E94190280910B0290910C020E94B1
:1013300095008DE10E94F20281FF08C080910B02AE
:1013400090910C020E9495000E940F0380E00E9481
:10135000F202682F6E7F80E00E94BB0282E00E9452
:10136000F202F4019491B60101C0660F9A95EAF772
:10137000682B82E00E94BB0280910202682E8730B7
:1013800010F096E0692E90910302782E7618911154
:10139000712C0E94160280EA0E94B40208E511E056
:1013A0006A94FFEF6F1651F0F80181918F010E944E
:1013B000B402F6CF4AE00E94380318CE7A94FFEFC9
:1013C0007F1621F080E00E94B402F8CF0E94130241
:1013D00081E00E9419028FB7F89440904C01509020
:1013E0004D0160904E0170904F018FBF0E94160218
:1013F0008FEF0E94B402182F0E941302107339F568
:101400002FB7F89480914C0190914D01A0914E011D
:10141000B0914F012FBF84199509A609B7098036ED
:101420009105A105B10510F381E080930A021092A5
:101430005101109250012114310409F4A2CC0E94F0
:101440000A01882309F49DCC0E9400009ACC80E018
:101450000E94190260E787E00E94BB0284FFE7CF89
:101460000E940F03E4CF0E94470A0C942F0B0E94A6
:10147000280B58F00E94210B40F029F45F3F29F01F
:101480000C94180B51110C94630B0C941E0B0E94BE
:10149000400B68F39923B1F3552391F3951B550B3A
:1014A000BB27AA2762177307840738F09F5F5F4F37
:1014B000220F331F441FAA1FA9F335D00E2E3AF076
:1014C000E0E832D091505040E695001CCAF72BD08E
:1014D000FE2F29D0660F771F881FBB1F26173707DF
:1014E0004807AB07B0E809F0BB0B802DBF01FF2711
:1014F00093585F4F3AF09E3F510578F00C94180BCB
:101500000C94630B5F3FE4F3983ED4F38695779594
:101510006795B795F7959F5FC9F7880F911D9695C9
:10152000879597F90895E1E0660F771F881FBB1F25
:10153000621773078407BA0720F0621B730B840BD2
:10154000BA0BEE1F88F7E09508950E94AC0A6894E4
:10155000B1110C94630B08950E94480B88F09F57BB
:1015600098F0B92F9927B751B0F0E1F0660F771FC7
:10157000881F991F1AF0BA95C9F714C0B13091F0BD
:101580000E94620BB1E008950C94620B672F782FD4
:101590008827B85F39F0B93FCCF386957795679582
:1015A000B395D9F73EF490958095709561957F4FEE
:1015B0008F4F9F4F0895E89409C097FB3EF4909594
:1015C0008095709561957F4F8F4F9F4F9923A9F01C
:1015D000F92F96E9BB279395F695879577956795AB
:1015E000B795F111F8CFFAF4BB0F11F460FF1BC0EF
:1015F0006F5F7F4F8F4F9F4F16C0882311F096E982
:1016000011C0772321F09EE8872F762F05C066232F
:1016100071F096E8862F70E060E02AF09A95660FE8
:10162000771F881FDAF7880F9695879597F90895A1
:1016300097F99F6780E870E060E008959FEF80EC85
:10164000089500240A941616170618060906089528
:1016500000240A9412161306140605060895092E8E
:101660000394000C11F4882352F0BB0F40F4BF2BFD
:1016700011F460FF04C06F5F7F4F8F4F9F4F08953D
:1016800057FD9058440F551F59F05F3F71F0479533
:10169000880F97FB991F61F09F3F79F08795089518
:1016A000121613061406551FF2CF4695F1DF08C037
:1016B000161617061806991FF1CF86957105610554
:1016C00008940895E894BB2766277727CB0197F9FC
:1016D0000895A1E21A2EAA1BBB1BFD010DC0AA1F73
:1016E000BB1FEE1FFF1FA217B307E407F50720F08B
:1016F000A21BB30BE40BF50B661F771F881F991F06
:101700001A9469F760957095809590959B01AC014E
:10171000BD01CF010895EE0FFF1F0590F491E02D5C
:061720000994F894FFCFCC
:1017260031320000000031340000000000000000EB
:101736004001A000CD008D01FE00DC00F0004C6FE2
:101746006F70207C20004A6172616B3A2000446110
:10175600746120627574746F6E3A20006B697269E9
:061766006D000D0A0000F9
:00000001FF
